:100000000C945D000C94740A0C944D0A0C948500B9
:100010000C9485000C9485000C9485000C9485004C
:100020000C9485000C9485000C9485000C9485003C
:100030000C9485000C9485000C9485000C9485002C
:100040000C94030A0C9485000C94C10A0C949B0A2E
:100050000C9485000C9485000C9485000C9485000C
:100060000C9485000C94850000000008000201003B
:100070000003040700000000000000000000000072
:10008000250028002B0000000000240027002A0083
:10009000040404040404040402020202020203032E
:1000A0000303030301020408102040800102040836
:1000B0001020010204081020F30A11241FBECFEF04
:1000C000D8E0DEBFCDBF12E0A0E0B1E0E6E7F4E2A9
:1000D00002C005900D92A23AB107D9F724E0A2EA36
:1000E000B2E001C01D92A838B207E1F710E0CDE5FB
:1000F000D0E004C02197FE010E945B0FCC35D107F0
:10010000C9F70E94400B0C9439120C94000090E047
:10011000FC01EC55FF4F249180579F4FFC018491C7
:10012000882399F090E0880F991FFC01EA57FF4F50
:10013000A591B491FC01E458FF4F859194918FB73C
:10014000F894EC91E22BEC938FBF089590E0FC01C2
:10015000E859FF4F2491FC01EC55FF4F3491FC010D
:10016000E057FF4FE491EE23C9F0222339F023300A
:1001700001F1A8F4213019F1223029F1F0E0EE0F5D
:10018000FF1FE458FF4FA591B4918FB7F894EC91FD
:10019000611126C030953E233C938FBF08952730D0
:1001A000A9F02830C9F0243049F7809180008F7D74
:1001B00003C0809180008F7780938000DFCF84B56B
:1001C0008F7784BDDBCF84B58F7DFBCF8091B0006E
:1001D0008F778093B000D2CF8091B0008F7DF9CF20
:1001E0003E2BDACFCF93CFB7F8948091CB03811118
:1001F00024C0EAE9F0E08491EEEAF0E09491E82F7F
:10020000F0E0EE0FFF1FEA57FF4FA591B491EC917C
:10021000E92321F461E08AE00E94A6008AE00E94BE
:1002200087008CB580618CBD8CB580648CBD8DE001
:100230000E9487008BE00E9487008091CB038F5F34
:100240008093CB03CFBFCF9108953FB7F8948091AF
:10025000C7039091C803A091C903B091CA0326B502
:10026000A89B05C02F3F19F00196A11DB11D3FBFEE
:10027000BA2FA92F982F8827BC01CD01620F711DBD
:10028000811D911D42E0660F771F881F991F4A95B7
:10029000D1F708958F929F92AF92BF92CF92DF9243
:1002A000EF92FF9289E00E94870061E089E00E945E
:1002B000A6000E9425014B015C0183E0C82ED12CD1
:1002C000E12CF12C0E942501681979098A099B0902
:1002D000683E734081059105A8F321E0C21AD10858
:1002E000E108F10888EE880E83E0981EA11CB11C7D
:1002F000C114D104E104F10429F760E089E0FF9022
:10030000EF90DF90CF90BF90AF909F908F900C9424
:10031000A6002FB7F8946091C3037091C403809135
:10032000C5039091C6032FBF089581E08093A40276
:1003300008950895AF92BF92CF92DF92EF92FF920D
:100340000F931F93CF93DF936C017B018B01040FFD
:10035000151FEB015E01AE18BF08C017D10759F099
:100360006991D601ED91FC910190F081E02DC601DB
:100370000995892B79F7C501DF91CF911F910F91D5
:10038000FF90EF90DF90CF90BF90AF900895FC0169
:10039000538D448D252F30E0842F90E0821B930BEA
:1003A000541710F0CF96089501970895FC01918D90
:1003B000828D981761F0A28DAE0FBF2FB11D5D9693
:1003C0008C91928D9F5F9F73928F90E008958FEF35
:1003D0009FEF0895FC01918D828D981731F0828DE9
:1003E000E80FF11D858D90E008958FEF9FEF089540
:1003F000FC01918D228D892F90E0805C9F4F821BA4
:1004000091098F73992708958CEC93E00E94F8016D
:1004100021E0892B09F420E0822F089580E090E00C
:10042000892B29F00E94040281110C940000089588
:10043000FC01A48DA80FB92FB11DA35ABF4F2C9159
:10044000848D90E001968F739927848FA689B78950
:100450002C93A089B1898C91837080648C93938D47
:10046000848D981306C00288F389E02D80818F7DEA
:1004700080830895EF92FF920F931F93CF93DF93A2
:10048000EC0181E0888F9B8D8C8D98131AC0E889D0
:10049000F989808185FF15C09FB7F894EE89FF899F
:1004A0006083E889F98980818370806480839FBF3D
:1004B00081E090E0DF91CF911F910F91FF90EF903D
:1004C0000895F62E0B8D10E00F5F1F4F0F7311274D
:1004D000E02E8C8D8E110CC00FB607FCFACFE88988
:1004E000F989808185FFF5CFCE010E941802F1CFF6
:1004F000EB8DEC0FFD2FF11DE35AFF4FF0829FB7FC
:10050000F8940B8FEA89FB8980818062CFCF682FB6
:100510008CEC93E00C943A02CF93DF93EC01888D3E
:100520008823B9F0AA89BB89E889F9898C9185FD6E
:1005300003C0808186FD0DC00FB607FCF7CF8C91FC
:1005400085FFF2CF808185FFEDCFCE010E9418029A
:10055000E9CFDF91CF910895CF93DF93EB01DC01D9
:10056000ED91FC910680F781E02D0995882379F0C3
:100570008091C0039091C103C817D90711F0CD2B0A
:1005800029F481E09091A502911101C080E0DF91F2
:10059000CF9108954F925F926F927F929F92AF9208
:1005A000BF92CF92DF92EF92FF920F931F93CF9360
:1005B000DF9300D000D000D0CDB7DEB79E838D830F
:1005C0006B015A01122FF02E912C2E2D30E050E0AD
:1005D00040E029833A834B835C838FE1E82EAD8131
:1005E000BE81ED91FC9111970280F381E02D01E035
:1005F000212FA501B601CD0109950E9489012B018A
:100600003C010E94890164197509860997092981AD
:100610003A814B815C816217730784079507E8F480
:10062000B6018D819E810E94AC02882351F32696EB
:100630000FB6F894DEBF0FBECDBFDF91CF911F91F3
:100640000F91FF90EF90DF90CF90BF90AF909F9071
:100650007F906F905F904F900895AD81BE815296CC
:100660008C9152978F3140F453969C915397890FF8
:10067000803240F452968C939394F91408F0AFCFE3
:1006800080E0D5CFED81FE81E28AF6CF4F925F9276
:100690006F927F929F92AF92BF92CF92DF92EF9232
:1006A000FF920F931F93CF93DF9300D000D000D021
:1006B000CDB7DEB79E838D836B015A01122FF02ECA
:1006C000912C2E2D30E050E040E029833A834B837B
:1006D0005C83AD81BE81ED91FC9111970280F38125
:1006E000E02D01E0212FA501B601CD0109950E9461
:1006F00089012B013C010E94890164197509860951
:10070000970929813A814B815C81621773078407BD
:100710009507E8F4B6018D819E810E94AC02882382
:1007200051F326960FB6F894DEBF0FBECDBFDF9112
:10073000CF911F910F91FF90EF90DF90CF90BF90DE
:10074000AF909F907F906F905F904F90089593949B
:10075000F91408F0BECF80E0E4CF08958FB7F89485
:100760008091A2028FBF0895CF93DF93EC0161E0E7
:100770008A810E94A6008C858CBD8D858DBDDF9100
:10078000CF910895CF93DF93C1E8D4E061E08881F1
:100790000E94A6008B818CBD8C818DBDDF91CF9195
:1007A00008958EBD00000DB407FEFDCF8EB50895EF
:1007B0001F93CF93DF9360726093A7022091A502ED
:1007C000222329F12091A702222309F11091BF03CE
:1007D0001123E9F0EC0180E00E94D10390E09195B3
:1007E000819591099D8B8C8B11501093BF032889A3
:1007F00039892115310559F08217930774F48A89D4
:100800008F3128F49B89890F803228F48A8BDF91FD
:10081000CF911F9108958FE1F9CF28173907BCF7C1
:100820008A898823A1F38150F1CF0F931F93CF932F
:10083000DF93EC01062F142FE881F981008CF18DF4
:10084000E02D0995802F80680E94D103812F0E949E
:10085000D103E881F981028CF38DE02DCE01DF9187
:10086000CF911F910F9109941F93CF93DF93EC01C8
:10087000162F45E561114DE56AE5CE010E9415048C
:1008800040E711114CE76CE5CE01DF91CF911F914C
:100890000C9415041F93CF93DF93EC01162FE8817E
:1008A000F981008CF18DE02D0995812F0E94D103F3
:1008B00080E00E94D103182FE881F981028CF38D2A
:1008C000E02DCE010995812FDF91CF911F910895E1
:1008D0007F928F929F92AF92BF92CF92DF92EF92D0
:1008E000FF920F931F93CF93DF93EC014B01F42EF4
:1008F000D52E722EE881F9810488F589E02D61E01A
:10090000099567E2CE010E944A0487FFFACF10E002
:10091000E1101C2D170D1E3308F01DE3E881F9814D
:10092000008CF18DE02DCE01099580E80E94D10365
:1009300083E0810F0E94D103882D0E94D1038D8115
:100940000E94D1038FEF8816910491F188F1C401C0
:1009500026E0969587952A95E1F78C702D813E814A
:100960002F3F310521F018F0932F9370892BEE2043
:1009700009F190E0C11090E28068892B0E94D103B8
:10098000CC2049F0C501B7FE03C09195819591092E
:100990000E94D10311500F2D8F2C9D2C882D801B70
:1009A0008117A0F4F40181914F010E94D103F6CF89
:1009B00080E0D4CF002339F02889398990E4232BB3
:1009C00009F090E6892B0E94D103E5CFE881F981F7
:1009D000028CF38DE02DCE010995E881F981048820
:1009E000F589E02D64E0CE01099568E2CE010E9410
:1009F0004A0483FFFACFE881F9810488F589E02D64
:100A000061E0CE01DF91CF911F910F91FF90EF90A8
:100A1000DF90CF90BF90AF909F908F907F90099480
:100A2000AF92BF92CF92EF920F93B12CA12CC12C19
:100A30000E9468040F91EF90CF90BF90AF900895FF
:100A40004F925F926F927F928F929F92AF92BF92DE
:100A5000CF92DF92EF92FF920F931F93CF93DF938A
:100A6000EC012B01142F1092B2026090C003709021
:100A7000C10380907F03909080038091A70201E0E2
:100A8000811101C000E06DE3CE010E944A04482FAD
:100A900044606DE3CE010E9415040E9489016B0140
:100AA0007C01E881F9810190F081E02DCE0109956A
:100AB000811113C00E9489016C197D098E099F095B
:100AC000683E73408105910540F4E881F981068014
:100AD000F781E02DCE010995E4CF7092C1036092B9
:100AE000C0035401C02EEE24E39400E0212FA201A4
:100AF000B301CE010E9468049092800380927F032C
:100B0000DF91CF911F910F91FF90EF90DF90CF90E9
:100B1000BF90AF909F908F907F906F905F904F901D
:100B20000895CF93DF93EC0169874AE161114FE0AB
:100B300063E1CE010E9415048985882369F061E193
:100B4000CE010E944A048F71482F406661E1CE01B8
:100B5000DF91CF910C94150448854068F7CFCF936F
:100B6000DF93EC011092BF031092C1031092C003F7
:100B70001092B1021092B0021092A3021092B2022F
:100B80001092A5021092800310927F0368E20E94E7
:100B90004A0482FF0AC06DE3CE010E944A04482F36
:100BA00044606DE3CE010E94150440E465E2CE018D
:100BB0000E941504E881F9810488F589E02D63E03D
:100BC000CE01DF91CF9109941092A7020C94AF054A
:100BD0004F925F926F927F928F929F92AF92BF924D
:100BE000CF92DF92EF920F931F93CF93DF93EC019D
:100BF0004B01142F1092B202C090C003D090C103D9
:100C0000A0907F03B09080036DE30E944A04482FB8
:100C100044606DE3CE010E9415040E9489012B01FE
:100C20003C01E881F9810190F081E02DCE01099528
:100C3000811113C00E9489016419750986099709F9
:100C4000683E73408105910540F4E881F981068092
:100C5000F781E02DCE010995E4CFD092C103C09277
:100C6000C003E881F9810088F189E02DEE24E39446
:100C700000E0212FA401B601CE010995B0928003B6
:100C8000A0927F03DF91CF911F910F91EF90DF90A2
:100C9000CF90BF90AF909F908F907F906F905F901C
:100CA0004F9008954F925F926F927F92AF92BF9252
:100CB000CF92DF92EF920F931F93CF93DF93EC01CC
:100CC0006B015A01122F6DE30E944A04482F4460C1
:100CD0006DE3CE010E9415040E9489012B013C01A5
:100CE000E881F9810190F081E02DCE010995811113
:100CF00013C00E9489016419750986099709683E25
:100D000073408105910540F4E881F9810680F781FF
:100D1000E02DCE010995E4CFE881F9810088F189C1
:100D2000E02DE12C212FA501B601CE010995DF911F
:100D3000CF911F910F91EF90DF90CF90BF90AF9028
:100D40007F906F905F904F900895CF93DF93EC0169
:100D5000603208F06FE168878985882311F0669515
:100D6000688761E1CE010E944A04807E4885482B55
:100D700061E1CE01DF91CF910C9415041F93CF93C5
:100D8000DF9320916904261761F0162FEC01623081
:100D900009F445C050F4662309F453C0613009F4E6
:100DA00049C0DF91CF911F910895633021F16430E4
:100DB000C1F761E00E944A04837E482F4C6061E0E5
:100DC000CE010E9415048985882341F0E881F981CC
:100DD0000688F789E02D61E0CE01099580916904CC
:100DE000811106C067E2CE010E944A0487FFF6CF58
:100DF00010936904D6CF61E00E944A04837E482F95
:100E0000406161E0CE010E9415048985882331F399
:100E1000E881F9810688F789E02D60E0DDCF61E0A7
:100E20000E944A04837E482F486061E0CE010E9400
:100E30001504D4CF61E00E944A04837E482F4460A9
:100E4000F4CF61E00E944A04482F437EEECF1F9307
:100E5000CF93DF93209169042617A9F0162FEC0198
:100E60000E94BE06143079F488899989892B59F03B
:100E7000E881F9810484F585E02D6A89CE01DF914E
:100E8000CF911F910994DF91CF911F910895AF9257
:100E9000BF92CF92DF92EF92FF920F931F93CF9367
:100EA000DF93EC016B01B42EA52EF22E102FE881FA
:100EB000F9810488F589E02D61E0099567E2CE01AA
:100EC0000E944A0487FFFACF0F2D0E3308F00DE37E
:100ED000E1103DC01123E9F110E48FEFC816D104F1
:100EE00049F040F0C60126E0969587952A95E1F7EE
:100EF0008C70182B8D819E818F3F910521F018F009
:100F0000892F8370182BE881F981008CF18DE02DF9
:100F1000CE01099580E80E94D10383E0800F0E94F2
:100F2000D1038C2D0E94D1038D810E94D103812F8A
:100F30000E94D1031B2DEB2CFA2C8E2D811B8017C8
:100F400050F4F70181917F010E94D103F6CF10E8A0
:100F5000C4CF10E0C2CFE881F981028CF38DE02D7F
:100F6000CE010995E881F9810488F589E02D64E0D6
:100F7000CE01099568E2CE010E944A0483FFFACFB0
:100F8000E881F9810488F589E02D61E0CE01DF91E7
:100F9000CF911F910F91FF90EF90DF90CF90BF9076
:100FA000AF9009948CBD9DBD0895CF93DF938CB510
:100FB000C1E8D4E08B838DB58C838D819E810E94A6
:100FC000D20760E08881DF91CF910C94A600CF9387
:100FD0000E94D50785E00E94D10380E00E94D103E2
:100FE000C82F0E94C2038C2F8170CF910895CF9398
:100FF000DF93C82F662331F060E086E00E94F70798
:101000000E94C2030E94D50785E00E94D10380E0C0
:101010000E94D103D82F0E94C203D0FDF3CF0E94BB
:10102000D5078C2FDF91CF910C94D103CF93DF9311
:101030000E94D5078FE90E94D10380E00E94D1036E
:10104000C82FD0E0DC2FCC2780E00E94D103C82B32
:101050000E94C203CE01DF91CF910895CF93DF9319
:10106000EC018CB58C878DB58D878E859F850E9410
:10107000D20760E08A81DF91CF910C94A600EF92B5
:10108000FF920F931F93CF93DF938C01EB0161E0ED
:101090000E942707209741F18881882329F1C80100
:1010A0000E942E088EEB0E94D1037E0180E1E80EA3
:1010B000F11C89910E94D103EC16FD06D1F7C801FD
:1010C0000E94B403C1E06DE3C8010E944A048E7F10
:1010D000482F4C2B6DE3C801DF91CF911F910F91E9
:1010E000FF90EF900C941504C0E0EDCFFC0101904F
:1010F0000020E9F73197AF01481B590BBC018CEC7C
:1011000093E00C949A0188E391E00C9476088F9216
:101110009F92AF92BF920F931F93CF93DF93CDB760
:10112000DEB7A1970FB6F894DEBF0FBECDBF19A2F0
:10113000423008F44AE08E010F5D1F4F842E912C3F
:10114000B12CA12CA50194010E94390FE62FB90101
:10115000CA01EA30F4F4E05DD801EE938D01232B4F
:10116000242B252B79F790E080E0109719F0CD0122
:101170000E947608A1960FB6F894DEBF0FBECDBFD1
:10118000DF91CF911F910F91BF90AF909F908F9063
:101190000895E95CE1CFCF93DF930E947608EC01DC
:1011A0000E9483088C0F9D1FDF91CF9108950C94AE
:1011B0007608CF92DF92EF92FF92CF93DF936C018C
:1011C000990FEE08FF08F7FE17C08DE20E94870214
:1011D000EC0166277727CB016C197D098E099F09E1
:1011E0004AE00E9487088C0F9D1FDF91CF91FF90EE
:1011F000EF90DF90CF9008954AE0C701B601DF91EC
:10120000CF91FF90EF90DF90CF900C948708CF9311
:10121000DF9320916904233021F080E0DF91CF91AA
:1012200008952091A3022111F8CFEC0164E20E94FD
:101230004A0490E09195819591098C349F4F6CF709
:10124000E881F9810488F589E02D61E0CE010995F6
:1012500081E0E4CFEF92FF920F931F93CF93DF9340
:10126000EC018091A402882309F468C0809169048C
:101270001092A402833009F0AEC068E2CE010E9451
:101280004A0482FFA8C0E881F9810488F589E02D2D
:1012900061E0CE010995E881F981008CF18DE02DA6
:1012A000CE01099580E00E94D10380E00E94D10325
:1012B000082F182F833408F012E41093A30280E063
:1012C0000E94D103E82E80E00E94D103F82E80E036
:1012D0000E94D103282F30E0A90166E0440F551F7A
:1012E0006A95E1F7442753704E295093B102409319
:1012F000B002322F2227222733702F293093C103C7
:101300002093C0039F81E881F981911107C02D814D
:101310003E814217530711F0452B11F4033040F57D
:101320001092A302028CF38DE02DCE010995E88185
:10133000F9810288F389E02DCE0109958091690435
:10134000833009F057C08091A302882309F459C063
:10135000E881F9810488F589E02D61E0CE010995E5
:1013600081E0DF91CF911F910F91FF90EF90089551
:1013700013501093BF03982F90789093A502982F45
:1013800090749093B2020684F785E02D682FCE0109
:10139000099510E0E091BF031E1750F480E00E9411
:1013A000D103E12FF0E0EF57FC4F80831F5FF2CFB6
:1013B000F0E0EF57FC4F1082E881F981028CF38D49
:1013C000E02DCE010995E881F9810488F589E02DA9
:1013D00063E0CE01099564E2CE010E944A0490E0E8
:1013E0009195819591099595879590938003809328
:1013F0007F03A4CFE881F9810288F389E02DCE0133
:10140000099580E0AECF1F920F920FB60F92112474
:101410002F933F938F939F93AF93BF938091C30379
:101420009091C403A091C503B091C6033091C2034B
:1014300023E0230F2D3758F50196A11DB11D2093F0
:10144000C2038093C3039093C403A093C503B093D6
:10145000C6038091C7039091C803A091C903B091BE
:10146000CA030196A11DB11D8093C7039093C803C1
:10147000A093C903B093CA03BF91AF919F918F917D
:101480003F912F910F900FBE0F901F90189526E857
:10149000230F0296A11DB11DD2CF1F920F920FB63E
:1014A0000F9211242F933F934F935F936F937F93EA
:1014B0008F939F93AF93BF93EF93FF93E0910201BC
:1014C000F09103010995FF91EF91BF91AF919F9129
:1014D0008F917F916F915F914F913F912F910F90DD
:1014E0000FBE0F901F9018951F920F920FB60F927C
:1014F00011242F933F934F935F936F937F938F9319
:101500009F93AF93BF93EF93FF93E0910001F0910E
:1015100001010995FF91EF91BF91AF919F918F913B
:101520007F916F915F914F913F912F910F900FBEDF
:101530000F901F9018951F920F920FB60F921124C3
:101540002F933F934F935F936F937F938F939F93CB
:10155000AF93BF93EF93FF938CEC93E00E9418023C
:10156000FF91EF91BF91AF919F918F917F916F917B
:101570005F914F913F912F910F900FBE0F901F9051
:1015800018951F920F920FB60F9211242F938F93DD
:101590009F93EF93FF93E091DC03F091DD03808153
:1015A000E091E203F091E30382FD1BC09081809102
:1015B000E5038F5F8F732091E603821741F0E0917E
:1015C000E503F0E0E453FC4F958F8093E503FF9132
:1015D000EF919F918F912F910F900FBE0F901F90C1
:1015E00018958081F4CFECECF3E01382128288EE40
:1015F00093E0A0E0B0E084839583A683B7838AE07C
:1016000091E09183808385EC90E09587848784ECDA
:1016100090E09787868780EC90E0918B808B81ECBF
:1016200090E0938B828B82EC90E0958B848B86ECA0
:1016300090E0978B868B118E128E138E148EE1E8BC
:10164000F4E080E58583168298E0908320E33FEE06
:1016500032832183EAE6F4E0868717868AE0828374
:1016600082E0838381E08093690417828FE1808721
:101670001186138612868CE191E091838083089510
:10168000CF93DF93CDB7DEB7E2970FB6F894DEBF06
:101690000FBECDBF789484B5826084BD84B581606F
:1016A00084BD85B5826085BD85B5816085BD80912D
:1016B0006E00816080936E001092810080918100A5
:1016C000826080938100809181008160809381009D
:1016D000809180008160809380008091B10084605F
:1016E0008093B1008091B00081608093B0008091C0
:1016F0007A00846080937A0080917A00826080937F
:101700007A0080917A00816080937A0080917A00DB
:10171000806880937A001092C100E091DC03F09120
:10172000DD0382E08083E091D803F091D903108239
:10173000E091DA03F091DB0380E180831092E4030F
:10174000E091E003F091E10386E08083E091DE0325
:10175000F091DF03808180618083E091DE03F0916E
:10176000DF03808188608083E091DE03F091DF03F6
:10177000808180688083E091DE03F091DF038081C7
:101780008F7D808310927B0410927A0410927F04E4
:1017900010927E041092A7028FE180937C0481E076
:1017A00080937D0490916D04923009F0B8C010923E
:1017B0006E04FE0133968CE2DF011D928A95E9F7F3
:1017C00081E0898384E08A8322E02B8393E09D83F8
:1017D0002E838F8380E4888725E029879A8796E087
:1017E0009B8793E39C8797E09D8728E02F8729E0DC
:1017F000298B29E12B8B22E42C8B35E23D8B8E8BC0
:1018000036E23F8B988F98E2998F90E19A8F99E218
:101810009B8F9CED9C8F9EE29D8F98E89E8F9FE210
:101820009F8F9DE298A390E399A337E33BA330E910
:101830003CA338E33DA32EA32CE32FA32FE828A736
:101840002DE329A722E12AA72FE62BA79CA79FEF2C
:101850009DA79CE69E87888B84E68AA361E08091A1
:101860006C040E94A60080916C040E948700809105
:10187000740490917504892B31F486EA92E0909378
:101880007504809374040E94F20080E580937804CC
:1018900081E0809379040E9489014B015C014AEA4E
:1018A0006FE28AE694E00E9415046FE28AE694E013
:1018B0000E944A048A3A59F00E94890168197909FC
:1018C0008A099B09623371058105910540F30E94E5
:1018D00089014B015C0145E56FE28AE694E00E94D4
:1018E00015046FE28AE694E00E944A04853509F007
:1018F000ACC010E0E12FF0E0EE0FFF1F81E090E0C0
:101900008C0F9D1FE80FF91F60816F3F09F4AAC07B
:1019100041818AE694E00E9415041F5FEBCF93306B
:1019200009F490C08FEF80936E0461E08AE694E042
:101930000E9491056BE371E08AE694E00E943F0803
:1019400080EB9FEF90937B0480937A0481E08F93E8
:1019500081EB8F938BE491E09F938F938E010F5FC8
:101960001F4F1F930F930E94610FC8010E94CB0865
:101970008CB5809384048DB5809385048091810417
:101980000E9487000E94F20080E5809386041092F6
:1019900087040E94C2030E94D5078BEA0E94D103EC
:1019A0000E94C2030F900F900F900F900F900F9016
:1019B0008091820490918304892B09F0AAC061E090
:1019C00081E00E94F70780E00E94D1030E94C203D9
:1019D00086E691E00E94D70860E08BE40E94F7075A
:1019E00080E00E94D10380E00E94D10380E00E9449
:1019F000D10380E00E94D10358EAC52E52E0D52ED3
:101A000060EBA62E62E0B62E860180E00E94D10334
:101A1000D8018D938D01AA16BB06B9F70E94C203A7
:101A2000F60161916F0170E090E080E040E10E947A
:101A3000870880E20E9487020C151D0589F70E9425
:101A4000830875C080936E04B4CE0E948901681922
:101A500079098A099B09623371058105910508F4AA
:101A60003ACF47CF70E060E08AE694E00E943F08FA
:101A7000609173048AE694E00E94910561E08AE631
:101A800094E00E9427070E9489014B015C0167E2F4
:101A90008AE694E00E944A0487FD0BC00E948901F7
:101AA000681979098A099B096233710581059105D5
:101AB00070F30E948901681979098A099B096233C8
:101AC00071058105910508F030CF80916E04823058
:101AD00090F4E82FF0E0EE0FFF1FE050FF4F25E9F4
:101AE00031E031832083813069F080916900836027
:101AF00080936900E89A82E090E09093700480936C
:101B00006F0413CF809169008C6080936900E99A1B
:101B1000F2CF0E941608209182043091830482172C
:101B2000930709F44CCF8DE891E00E94CB088CEB31
:101B300091E00E94CB0814E628E7A22E22E0B22E04
:101B400030E0232E30E0332E48EE842E43E0942EF6
:101B50008CEC93E00E94F801181619060CF06EC088
:101B60008CEC93E00E94D601082F80ED800F8A3024
:101B700000F5802F002E000C990BC097189F900144
:101B8000199F300D11242115310509F47DC03093C2
:101B90000501209304018BEE91E00E94D70880910B
:101BA0000401909105010E94D9088FEF91E00E94F5
:101BB000CB08023709F06DC083E092E00E94CB08A9
:101BC000412C512C320143948AE694E00E942E0865
:101BD000842D0E94D10380E00E94D103C82E8AE6A2
:101BE00094E00E94B40340E1C301B2010E9487085F
:101BF00087E192E00E94D708D12CF12CE12C40E142
:101C0000C701B6010E94870887E192E00E94D708C9
:101C100042E0C701B6010E9487080E948308FFEFD7
:101C20004F1A5F0A6F0A7F0A20E5421651046104C9
:101C3000710451F68AE694E00E94B4038AE694E0C7
:101C40000E942A09882309F4B1C08BE50E9487020B
:101C50006091C0037091C10390E080E04AE00E946F
:101C600087088AE592E00E94D70800E08091BF03D0
:101C7000081708F06FC0E02FF0E0EF57FC4F8081AD
:101C80000E9487020F5FF2CF9092050180920401BB
:101C900082CF0436D1F58BE192E00E94CB088AE234
:101CA00092E00E94D708412C512C320160E083E081
:101CB0000E94F70780E00E94D103852D0E94D10386
:101CC000842D0E94D10380E00E94D103082F0E943E
:101CD000C203602F70E090E080E040E10E9487083E
:101CE0008EE20E9487028FEF481A580A680A780A23
:101CF00091E04916590661047104C1F60E94E70794
:101D00008111FCCF0E94830899CF053699F482E3B4
:101D100092E00E94D70861E080E60E94F7070E94E7
:101D2000C2030E94E7078111FCCF8AE492E00E947F
:101D3000CB0884CF093609F081CF8FE492E00E946E
:101D4000D7080E941608BC0190E080E040E10E94A4
:101D50008708D8CF8DE592E00E94D70880917F0355
:101D6000909180030E94D9088AE692E00E94D708E9
:101D70008091B2028823B1F020916F0430917004F9
:101D80008091B0029091B1022817390759F440E0D0
:101D90006AE371E08AE694E00E9420058CE692E016
:101DA0000E94D7080E944A010E9483080E9489016C
:101DB0002091040130910501032E000C440B550BBA
:101DC0000E94390FA901330F660B770B80917B03BB
:101DD00090917C03A0917D03B0917E034817590731
:101DE0006A077B07B9F140937B0350937C036093B0
:101DF0007D0370937E030E9416089F938F93BF927A
:101E0000AF92A3EBB2E0BF93AF930E94610FA3EB3D
:101E1000B2E00D900020E9F79D01245B32408EE195
:101E2000E82E02E043EB52E061E070E08AE694E0E5
:101E30000E94CA020F900F900F900F900F900F907A
:101E40008823A1F08AE892E00E94D7080E948308C4
:101E50000E944A012114310409F47ACE0E9404023E
:101E6000882309F475CE0E94000072CE8FE892E0BC
:101E7000EBCFA1E21A2EAA1BBB1BFD010DC0AA1FAE
:101E8000BB1FEE1FFF1FA217B307E407F50720F0E3
:101E9000A21BB30BE40BF50B661F771F881F991F5E
:101EA0001A9469F760957095809590959B01AC01A7
:101EB000BD01CF010895EE0FFF1F0590F491E02DB5
:101EC0000994AEE0B0E0E7E6FFE00C9410120D8953
:101ED0001E8986E08C831A8309838FEF9FE79E8398
:101EE0008D83AE01475E5F4F6F89788DCE0101967D
:101EF0000E94840F2F813885020F131FF801108272
:101F00002E96E4E00C942C12ABE0B0E0EAE8FFE09F
:101F10000C9402127C013B018A01FC01178216829B
:101F2000838181FFC8C1CE0101965C01F7019381D5
:101F3000F30193FD859193FF81913F01882309F47B
:101F400053C1853239F493FD859193FF81913F010F
:101F5000853229F4B70190E00E947411E7CF912CEB
:101F6000212C312CFFE1F31538F08B3211F190F474
:101F7000803209F1833229F137FC3CC020ED280F73
:101F80002A3050F536FE20C08AE0989E200D11249C
:101F9000922E06C08D3291F0803371F7689430F83C
:101FA000F30193FD859193FF81913F018111DACF78
:101FB00021C0689431F8689432F8F2CF689433F80D
:101FC000EFCF689434F8ECCFEAE02E9E200D112478
:101FD000222E689435F8E4CF8E3229F436FC04C101
:101FE000689436F8DDCF8C3619F4689437F8D8CF7A
:101FF0008836B1F2982F9F7D95549330E0F0833668
:10200000A1F18337C1F1833509F063C02801F2E003
:102010004F0E511CF801C080D180692D70E036FC54
:1020200002C06FEF7FEFC6010E945E114C01689401
:1020300037F882010AC00C5F1F4FFFE3F983882441
:102040008394912C6501E89437F833FE2DC0522C0F
:102050008114910471F5552009F468CFB70180E22D
:1020600090E00E9474115A94F6CFF8018081898320
:102070000E5F1F4FE4CF2801F2E04F0E511CF80114
:10208000C080D180692D70E036FC02C06FEF7FEF19
:10209000C6010E9469114C018201D5CFB70180E2CF
:1020A00090E00E9474112A942814190409F0B0F7E2
:1020B000CECFF60137FC859137FE81916F01B701D4
:1020C00090E00E94741151105A94F1E08F1A910817
:1020D000BFCF843619F0893609F077C0F80137FE92
:1020E0006BC060817181828193810C5F1F4FF32DE2
:1020F000FF763F2E97FF09C090958095709561956A
:102100007F4F8F4F9F4F689437F82AE030E0A5014A
:102110000E94A411C82ECA188C2C432C36FE0CC069
:10212000E89440F8C91440F434FE05C032FC03C002
:10213000F32DFE7E4F2E892C44FE95C0FE01EC0D42
:10214000F11D8081803309F087C0242D297E422E25
:10215000842D8870582E43FC95C040FE8FC09C2C67
:10216000821418F42C0C922C981844FE91C0B701DC
:1021700080E390E00E94741142FE09C088E790E07D
:1021800041FE02C088E590E0B7010E947411C914B5
:1021900008F48AC0CA94D12C9FEFC91AD90ACA0C74
:1021A000DB1CF60182916F01B70190E00E9474116F
:1021B000AC14BD04B1F74FCF60817181072E000CC4
:1021C000880B990B0E5F1F4F92CFD32CE894D4F855
:1021D0002AE030E0853739F1232D297FD22E8F3642
:1021E00001F148F48835A9F0F701868197812B9693
:1021F000E2E10C941E12803749F08837A9F7D4FE2B
:1022000002C06894D2F820E130E00DC06894D4F8A0
:10221000F6CF34FE03C0822F8660D82E20E132E054
:1022200002C028E030E0F801D7FE0FC06081718164
:10223000828193810C5F1F4FA5010E94A411C82EBB
:10224000CA183D2CE89437F867CF6081718190E01F
:1022500080E00E5F1F4FF0CF42FC02C0839478CF26
:102260008394839475CF842D867809F471CFF6CF4B
:10227000B70180E290E00E94741183948214C0F34D
:10228000512C73CF522C5818821408F46ECFF8CF0B
:10229000842D867809F47BCF8BE241FE80E247FCF7
:1022A0008DE2B70190E071CFB70180E390E00E942A
:1022B00074119A946CCF8FEF9FEF99CFFC0105902A
:1022C000615070400110D8F7809590958E0F9F1F38
:1022D0000895FC016150704001900110D8F780957D
:1022E00090958E0F9F1F08950F931F93CF93DF93A9
:1022F000182F092FEB018B8181FD09C01FEF0FEF14
:10230000812F902FDF91CF911F910F91089582FF20
:1023100014C02E813F818C819D81281739073CF4A0
:10232000E881F981CF0101969983888310838E819A
:102330009F8101969F838E83E3CFE885F985812F66
:102340000995892BA1F3DACFFA01AA27283051F198
:10235000203181F1E8946F936E7F6E5F7F4F8F4FD6
:102360009F4FAF4FB1E03ED0B4E03CD0670F781F35
:10237000891F9A1FA11D680F791F8A1F911DA11D1A
:102380006A0F711D811D911DA11D20D009F4689453
:102390003F912AE0269F11243019305D3193DEF6FB
:1023A000CF010895462F4770405D4193B3E00FD0B1
:1023B000C9F7F6CF462F4F70405D4A3318F0495D9C
:1023C00031FD4052419302D0A9F7EACFB4E0A6957F
:1023D0009795879577956795BA95C9F700976105A1
:1023E000710508959B01AC010A2E069457954795F7
:1023F00037952795BA95C9F7620F731F841F951FEC
:10240000A01D08952F923F924F925F926F927F92FC
:102410008F929F92AF92BF92CF92DF92EF92FF92F4
:102420000F931F93CF93DF93CDB7DEB7CA1BDB0BA0
:102430000FB6F894DEBF0FBECDBF09942A88398845
:1024400048885F846E847D848C849B84AA84B9844C
:10245000C884DF80EE80FD800C811B81AA81B98158
:10246000CE0FD11D0FB6F894DEBF0FBECDBFED016C
:062470000895F894FFCF6F
:1024760099019901D007000000003A029A01C701AC
:102486008C02F801D601EA01000000000709520695
:10249600CA022A0920059105A506D8031005E405F8
:1024A600270734042E08B4030D0A00626C617374A6
:1024B6006675726E616365313233000A5472616EFD
:1024C600736D697474696E67206174202564204D8C
:1024D600687A2E2E2E0053504920466C6173682070
:1024E600496E6974204F4B202E2E2E20556E697131
:1024F6007565494420284D4143293A2000535049E7
:1025060020466C617368204D454D206E6F742066C1
:102516006F756E6420286973206368697020736F15
:102526006C64657265643F292E2E2E0052464D3628
:10253600395F41544320456E61626C6564202841D1
:1025460075746F205472616E736D697373696F6E03
:1025560020436F6E74726F6C290A000A4368616EBD
:1025660067696E672064656C617920746F20006D01
:10257600730A0041646472657373202D20484558C0
:10258600202D2042494E00202D2000466C617368A4
:1025960020636F6E74656E743A00302D3235363AAC
:1025A600200045726173696E6720466C617368200E
:1025B60063686970202E2E2E2000444F4E4500443D
:1025C600657669636549443A20005D200020202035
:1025D6005B52585F525353493A005D00202D20410B
:1025E600434B2073656E7400464C4153485F4D451E
:1025F6004D5F49443A3078255800206F6B210066BC
:102606006C6173682073656E64206661696C6564CD
:022616000000C2
:00000001FF
