:100000000C945D000C94740A0C944D0A0C948500B9
:100010000C9485000C9485000C9485000C9485004C
:100020000C9485000C9485000C9485000C9485003C
:100030000C9485000C9485000C9485000C9485002C
:100040000C94030A0C9485000C94C10A0C949B0A2E
:100050000C9485000C9485000C9485000C9485000C
:100060000C9485000C94850000000008000201003B
:100070000003040700000000000000000000000072
:10008000250028002B0000000000240027002A0083
:10009000040404040404040402020202020203032E
:1000A0000303030301020408102040800102040836
:1000B0001020010204081020F30A11241FBECFEF04
:1000C000D8E0DEBFCDBF12E0A0E0B1E0ECE4F4E2A6
:1000D00002C005900D92A23AB107D9F723E0A2EA37
:1000E000B2E001C01D92A03CB207E1F710E0CDE5FF
:1000F000D0E004C02197FE010E94460FCC35D10705
:10010000C9F70E94400B0C9424120C94000090E05C
:10011000FC01EC55FF4F249180579F4FFC018491C7
:10012000882399F090E0880F991FFC01EA57FF4F50
:10013000A591B491FC01E458FF4F859194918FB73C
:10014000F894EC91E22BEC938FBF089590E0FC01C2
:10015000E859FF4F2491FC01EC55FF4F3491FC010D
:10016000E057FF4FE491EE23C9F0222339F023300A
:1001700001F1A8F4213019F1223029F1F0E0EE0F5D
:10018000FF1FE458FF4FA591B4918FB7F894EC91FD
:10019000611126C030953E233C938FBF08952730D0
:1001A000A9F02830C9F0243049F7809180008F7D74
:1001B00003C0809180008F7780938000DFCF84B56B
:1001C0008F7784BDDBCF84B58F7DFBCF8091B0006E
:1001D0008F778093B000D2CF8091B0008F7DF9CF20
:1001E0003E2BDACFCF93CFB7F894809103038111E0
:1001F00024C0EAE9F0E08491EEEAF0E09491E82F7F
:10020000F0E0EE0FFF1FEA57FF4FA591B491EC917C
:10021000E92321F461E08AE00E94A6008AE00E94BE
:1002200087008CB580618CBD8CB580648CBD8DE001
:100230000E9487008BE00E948700809103038F5FFC
:1002400080930303CFBFCF9108953FB7F894809177
:10025000FF0290910003A0910103B091020326B523
:10026000A89B05C02F3F19F00196A11DB11D3FBFEE
:10027000BA2FA92F982F8827BC01CD01620F711DBD
:10028000811D911D42E0660F771F881F991F4A95B7
:10029000D1F708958F929F92AF92BF92CF92DF9243
:1002A000EF92FF9289E00E94870061E089E00E945E
:1002B000A6000E9425014B015C0183E0C82ED12CD1
:1002C000E12CF12C0E942501681979098A099B0902
:1002D000683E734081059105A8F321E0C21AD10858
:1002E000E108F10888EE880E83E0981EA11CB11C7D
:1002F000C114D104E104F10429F760E089E0FF9022
:10030000EF90DF90CF90BF90AF909F908F900C9424
:10031000A6002FB7F8946091FB027091FC028091C7
:10032000FD029091FE022FBF089581E08093A40208
:1003300008950895AF92BF92CF92DF92EF92FF920D
:100340000F931F93CF93DF936C017B018B01040FFD
:10035000151FEB015E01AE18BF08C017D10759F099
:100360006991D601ED91FC910190F081E02DC601DB
:100370000995892B79F7C501DF91CF911F910F91D5
:10038000FF90EF90DF90CF90BF90AF900895FC0169
:10039000538D448D252F30E0842F90E0821B930BEA
:1003A000541710F0CF96089501970895FC01918D90
:1003B000828D981761F0A28DAE0FBF2FB11D5D9693
:1003C0008C91928D9F5F9F73928F90E008958FEF35
:1003D0009FEF0895FC01918D828D981731F0828DE9
:1003E000E80FF11D858D90E008958FEF9FEF089540
:1003F000FC01918D228D892F90E0805C9F4F821BA4
:1004000091098F739927089584E093E00E94F80181
:1004100021E0892B09F420E0822F089580E090E00C
:10042000892B29F00E94040281110C940000089588
:10043000FC01A48DA80FB92FB11DA35ABF4F2C9159
:10044000848D90E001968F739927848FA689B78950
:100450002C93A089B1898C91837080648C93938D47
:10046000848D981306C00288F389E02D80818F7DEA
:1004700080830895EF92FF920F931F93CF93DF93A2
:10048000EC0181E0888F9B8D8C8D98131AC0E889D0
:10049000F989808185FF15C09FB7F894EE89FF899F
:1004A0006083E889F98980818370806480839FBF3D
:1004B00081E090E0DF91CF911F910F91FF90EF903D
:1004C0000895F62E0B8D10E00F5F1F4F0F7311274D
:1004D000E02E8C8D8E110CC00FB607FCFACFE88988
:1004E000F989808185FFF5CFCE010E941802F1CFF6
:1004F000EB8DEC0FFD2FF11DE35AFF4FF0829FB7FC
:10050000F8940B8FEA89FB8980818062CFCF682FB6
:1005100084E093E00C943A02CF93DF93EC01888D52
:100520008823B9F0AA89BB89E889F9898C9185FD6E
:1005300003C0808186FD0DC00FB607FCF7CF8C91FC
:1005400085FFF2CF808185FFEDCFCE010E9418029A
:10055000E9CFDF91CF910895CF93DF93EB01DC01D9
:10056000ED91FC910680F781E02D0995882379F0C3
:100570008091F8029091F902C817D90711F0CD2B9C
:1005800029F481E09091A502911101C080E0DF91F2
:10059000CF9108954F925F926F927F929F92AF9208
:1005A000BF92CF92DF92EF92FF920F931F93CF9360
:1005B000DF9300D000D000D0CDB7DEB79E838D830F
:1005C0006B015A01122FF02E912C2E2D30E050E0AD
:1005D00040E029833A834B835C838FE1E82EAD8131
:1005E000BE81ED91FC9111970280F381E02D01E035
:1005F000212FA501B601CD0109950E9489012B018A
:100600003C010E94890164197509860997092981AD
:100610003A814B815C816217730784079507E8F480
:10062000B6018D819E810E94AC02882351F32696EB
:100630000FB6F894DEBF0FBECDBFDF91CF911F91F3
:100640000F91FF90EF90DF90CF90BF90AF909F9071
:100650007F906F905F904F900895AD81BE815296CC
:100660008C9152978F3140F453969C915397890FF8
:10067000803240F452968C939394F91408F0AFCFE3
:1006800080E0D5CFED81FE81E28AF6CF4F925F9276
:100690006F927F929F92AF92BF92CF92DF92EF9232
:1006A000FF920F931F93CF93DF9300D000D000D021
:1006B000CDB7DEB79E838D836B015A01122FF02ECA
:1006C000912C2E2D30E050E040E029833A834B837B
:1006D0005C83AD81BE81ED91FC9111970280F38125
:1006E000E02D01E0212FA501B601CD0109950E9461
:1006F00089012B013C010E94890164197509860951
:10070000970929813A814B815C81621773078407BD
:100710009507E8F4B6018D819E810E94AC02882382
:1007200051F326960FB6F894DEBF0FBECDBFDF9112
:10073000CF911F910F91FF90EF90DF90CF90BF90DE
:10074000AF909F907F906F905F904F90089593949B
:10075000F91408F0BECF80E0E4CF08958FB7F89485
:100760008091A2028FBF0895CF93DF93EC0161E0E7
:100770008A810E94A6008C858CBD8D858DBDDF9100
:10078000CF910895CF93DF93C9EBD3E061E08881E7
:100790000E94A6008B818CBD8C818DBDDF91CF9195
:1007A00008958EBD00000DB407FEFDCF8EB50895EF
:1007B0001F93CF93DF9360726093A7022091A502ED
:1007C000222329F12091A702222309F11091F70297
:1007D0001123E9F0EC0180E00E94D10390E09195B3
:1007E000819591099D8B8C8B11501093F70228896C
:1007F00039892115310559F08217930774F48A89D4
:100800008F3128F49B89890F803228F48A8BDF91FD
:10081000CF911F9108958FE1F9CF28173907BCF7C1
:100820008A898823A1F38150F1CF0F931F93CF932F
:10083000DF93EC01062F142FE881F981008CF18DF4
:10084000E02D0995802F80680E94D103812F0E949E
:10085000D103E881F981028CF38DE02DCE01DF9187
:10086000CF911F910F9109941F93CF93DF93EC01C8
:10087000162F45E561114DE56AE5CE010E9415048C
:1008800040E711114CE76CE5CE01DF91CF911F914C
:100890000C9415041F93CF93DF93EC01162FE8817E
:1008A000F981008CF18DE02D0995812F0E94D103F3
:1008B00080E00E94D103182FE881F981028CF38D2A
:1008C000E02DCE010995812FDF91CF911F910895E1
:1008D0007F928F929F92AF92BF92CF92DF92EF92D0
:1008E000FF920F931F93CF93DF93EC014B01F42EF4
:1008F000D52E722EE881F9810488F589E02D61E01A
:10090000099567E2CE010E944A0487FFFACF10E002
:10091000E1101C2D170D1E3308F01DE3E881F9814D
:10092000008CF18DE02DCE01099580E80E94D10365
:1009300083E0810F0E94D103882D0E94D1038D8115
:100940000E94D1038FEF8816910491F188F1C401C0
:1009500026E0969587952A95E1F78C702D813E814A
:100960002F3F310521F018F0932F9370892BEE2043
:1009700009F190E0C11090E28068892B0E94D103B8
:10098000CC2049F0C501B7FE03C09195819591092E
:100990000E94D10311500F2D8F2C9D2C882D801B70
:1009A0008117A0F4F40181914F010E94D103F6CF89
:1009B00080E0D4CF002339F02889398990E4232BB3
:1009C00009F090E6892B0E94D103E5CFE881F981F7
:1009D000028CF38DE02DCE010995E881F981048820
:1009E000F589E02D64E0CE01099568E2CE010E9410
:1009F0004A0483FFFACFE881F9810488F589E02D64
:100A000061E0CE01DF91CF911F910F91FF90EF90A8
:100A1000DF90CF90BF90AF909F908F907F90099480
:100A2000AF92BF92CF92EF920F93B12CA12CC12C19
:100A30000E9468040F91EF90CF90BF90AF900895FF
:100A40004F925F926F927F928F929F92AF92BF92DE
:100A5000CF92DF92EF92FF920F931F93CF93DF938A
:100A6000EC012B01142F1092B2026090F8027090EA
:100A7000F9028090B7029090B8028091A70201E03D
:100A8000811101C000E06DE3CE010E944A04482FAD
:100A900044606DE3CE010E9415040E9489016B0140
:100AA0007C01E881F9810190F081E02DCE0109956A
:100AB000811113C00E9489016C197D098E099F095B
:100AC000683E73408105910540F4E881F981068014
:100AD000F781E02DCE010995E4CF7092F902609282
:100AE000F8025401C02EEE24E39400E0212FA2016D
:100AF000B301CE010E9468049092B8028092B702BE
:100B0000DF91CF911F910F91FF90EF90DF90CF90E9
:100B1000BF90AF909F908F907F906F905F904F901D
:100B20000895CF93DF93EC0169874AE161114FE0AB
:100B300063E1CE010E9415048985882369F061E193
:100B4000CE010E944A048F71482F406661E1CE01B8
:100B5000DF91CF910C94150448854068F7CFCF936F
:100B6000DF93EC011092F7021092F9021092F80252
:100B70001092B1021092B0021092A3021092B2022F
:100B80001092A5021092B8021092B70268E20E9479
:100B90004A0482FF0AC06DE3CE010E944A04482F36
:100BA00044606DE3CE010E94150440E465E2CE018D
:100BB0000E941504E881F9810488F589E02D63E03D
:100BC000CE01DF91CF9109941092A7020C94AF054A
:100BD0004F925F926F927F928F929F92AF92BF924D
:100BE000CF92DF92EF920F931F93CF93DF93EC019D
:100BF0004B01142F1092B202C090F802D090F9026B
:100C0000A090B702B090B8026DE30E944A04482F4A
:100C100044606DE3CE010E9415040E9489012B01FE
:100C20003C01E881F9810190F081E02DCE01099528
:100C3000811113C00E9489016419750986099709F9
:100C4000683E73408105910540F4E881F981068092
:100C5000F781E02DCE010995E4CFD092F902C09240
:100C6000F802E881F9810088F189E02DEE24E3940F
:100C700000E0212FA401B601CE010995B092B8027F
:100C8000A092B702DF91CF911F910F91EF90DF906B
:100C9000CF90BF90AF909F908F907F906F905F901C
:100CA0004F9008954F925F926F927F92AF92BF9252
:100CB000CF92DF92EF920F931F93CF93DF93EC01CC
:100CC0006B015A01122F6DE30E944A04482F4460C1
:100CD0006DE3CE010E9415040E9489012B013C01A5
:100CE000E881F9810190F081E02DCE010995811113
:100CF00013C00E9489016419750986099709683E25
:100D000073408105910540F4E881F9810680F781FF
:100D1000E02DCE010995E4CFE881F9810088F189C1
:100D2000E02DE12C212FA501B601CE010995DF911F
:100D3000CF911F910F91EF90DF90CF90BF90AF9028
:100D40007F906F905F904F900895CF93DF93EC0169
:100D5000603208F06FE168878985882311F0669515
:100D6000688761E1CE010E944A04807E4885482B55
:100D700061E1CE01DF91CF910C9415041F93CF93C5
:100D8000DF932091A103261761F0162FEC0162304A
:100D900009F445C050F4662309F453C0613009F4E6
:100DA00049C0DF91CF911F910895633021F16430E4
:100DB000C1F761E00E944A04837E482F4C6061E0E5
:100DC000CE010E9415048985882341F0E881F981CC
:100DD0000688F789E02D61E0CE0109958091A10395
:100DE000811106C067E2CE010E944A0487FFF6CF58
:100DF0001093A103D6CF61E00E944A04837E482F5E
:100E0000406161E0CE010E9415048985882331F399
:100E1000E881F9810688F789E02D60E0DDCF61E0A7
:100E20000E944A04837E482F486061E0CE010E9400
:100E30001504D4CF61E00E944A04837E482F4460A9
:100E4000F4CF61E00E944A04482F437EEECF1F9307
:100E5000CF93DF932091A1032617A9F0162FEC0161
:100E60000E94BE06143079F488899989892B59F03B
:100E7000E881F9810484F585E02D6A89CE01DF914E
:100E8000CF911F910994DF91CF911F910895AF9257
:100E9000BF92CF92DF92EF92FF920F931F93CF9367
:100EA000DF93EC016B01B42EA52EF22E102FE881FA
:100EB000F9810488F589E02D61E0099567E2CE01AA
:100EC0000E944A0487FFFACF0F2D0E3308F00DE37E
:100ED000E1103DC01123E9F110E48FEFC816D104F1
:100EE00049F040F0C60126E0969587952A95E1F7EE
:100EF0008C70182B8D819E818F3F910521F018F009
:100F0000892F8370182BE881F981008CF18DE02DF9
:100F1000CE01099580E80E94D10383E0800F0E94F2
:100F2000D1038C2D0E94D1038D810E94D103812F8A
:100F30000E94D1031B2DEB2CFA2C8E2D811B8017C8
:100F400050F4F70181917F010E94D103F6CF10E8A0
:100F5000C4CF10E0C2CFE881F981028CF38DE02D7F
:100F6000CE010995E881F9810488F589E02D64E0D6
:100F7000CE01099568E2CE010E944A0483FFFACFB0
:100F8000E881F9810488F589E02D61E0CE01DF91E7
:100F9000CF911F910F91FF90EF90DF90CF90BF9076
:100FA000AF9009948CBD9DBD0895CF93DF938CB510
:100FB000C9EBD3E08B838DB58C838D819E810E949C
:100FC000D20760E08881DF91CF910C94A600CF9387
:100FD0000E94D50785E00E94D10380E00E94D103E2
:100FE000C82F0E94C2038C2F8170CF910895CF9398
:100FF000DF93C82F662331F060E086E00E94F70798
:101000000E94C2030E94D50785E00E94D10380E0C0
:101010000E94D103D82F0E94C203D0FDF3CF0E94BB
:10102000D5078C2FDF91CF910C94D103CF93DF9311
:101030000E94D5078FE90E94D10380E00E94D1036E
:10104000C82FD0E0DC2FCC2780E00E94D103C82B32
:101050000E94C203CE01DF91CF910895CF93DF9319
:10106000EC018CB58C878DB58D878E859F850E9410
:10107000D20760E08A81DF91CF910C94A600EF92B5
:10108000FF920F931F93CF93DF938C01EB0161E0ED
:101090000E942707209741F18881882329F1C80100
:1010A0000E942E088EEB0E94D1037E0180E1E80EA3
:1010B000F11C89910E94D103EC16FD06D1F7C801FD
:1010C0000E94B403C1E06DE3C8010E944A048E7F10
:1010D000482F4C2B6DE3C801DF91CF911F910F91E9
:1010E000FF90EF900C941504C0E0EDCFFC0101904F
:1010F0000020E9F73197AF01481B590BBC0184E090
:1011000093E00C949A018AE491E00C9476088F9213
:101110009F92AF92BF920F931F93CF93DF93CDB760
:10112000DEB7A1970FB6F894DEBF0FBECDBF19A2F0
:10113000423008F44AE08E010F5D1F4F842E912C3F
:10114000B12CA12CA50194010E94240FE62FB90116
:10115000CA01EA30F4F4E05DD801EE938D01232B4F
:10116000242B252B79F790E080E0109719F0CD0122
:101170000E947608A1960FB6F894DEBF0FBECDBFD1
:10118000DF91CF911F910F91BF90AF909F908F9063
:101190000895E95CE1CFCF93DF930E947608EC01DC
:1011A0000E9483088C0F9D1FDF91CF9108950C94AE
:1011B0007608CF92DF92EF92FF92CF93DF936C018C
:1011C000990FEE08FF08F7FE17C08DE20E94870214
:1011D000EC0166277727CB016C197D098E099F09E1
:1011E0004AE00E9487088C0F9D1FDF91CF91FF90EE
:1011F000EF90DF90CF9008954AE0C701B601DF91EC
:10120000CF91FF90EF90DF90CF900C948708CF9311
:10121000DF932091A103233021F080E0DF91CF9173
:1012200008952091A3022111F8CFEC0164E20E94FD
:101230004A0490E09195819591098C349F4F6CF709
:10124000E881F9810488F589E02D61E0CE010995F6
:1012500081E0E4CFEF92FF920F931F93CF93DF9340
:10126000EC018091A402882309F468C08091A10355
:101270001092A402833009F0AEC068E2CE010E9451
:101280004A0482FFA8C0E881F9810488F589E02D2D
:1012900061E0CE010995E881F981008CF18DE02DA6
:1012A000CE01099580E00E94D10380E00E94D10325
:1012B000082F182F833408F012E41093A30280E063
:1012C0000E94D103E82E80E00E94D103F82E80E036
:1012D0000E94D103282F30E0A90166E0440F551F7A
:1012E0006A95E1F7442753704E295093B102409319
:1012F000B002322F2227222733702F293093F90290
:101300002093F8029F81E881F981911107C02D8116
:101310003E814217530711F0452B11F4033040F57D
:101320001092A302028CF38DE02DCE010995E88185
:10133000F9810288F389E02DCE0109958091A103FE
:10134000833009F057C08091A302882309F459C063
:10135000E881F9810488F589E02D61E0CE010995E5
:1013600081E0DF91CF911F910F91FF90EF90089551
:1013700013501093F702982F90789093A502982F0E
:1013800090749093B2020684F785E02D682FCE0109
:10139000099510E0E091F7021E1750F480E00E94DA
:1013A000D103E12FF0E0E754FD4F80831F5FF2CFC0
:1013B000F0E0E754FD4F1082E881F981028CF38D53
:1013C000E02DCE010995E881F9810488F589E02DA9
:1013D00063E0CE01099564E2CE010E944A0490E0E8
:1013E000919581959109959587959093B8028093F1
:1013F000B702A4CFE881F9810288F389E02DCE01FC
:10140000099580E0AECF1F920F920FB60F92112474
:101410002F933F938F939F93AF93BF938091FB0242
:101420009091FC02A091FD02B091FE023091FA026F
:1014300023E0230F2D3758F50196A11DB11D2093F0
:10144000FA028093FB029093FC02A093FD02B093FA
:10145000FE028091FF0290910003A0910103B091E0
:1014600002030196A11DB11D8093FF02909300031A
:10147000A0930103B0930203BF91AF919F918F910D
:101480003F912F910F900FBE0F901F90189526E857
:10149000230F0296A11DB11DD2CF1F920F920FB63E
:1014A0000F9211242F933F934F935F936F937F93EA
:1014B0008F939F93AF93BF93EF93FF93E0910201BC
:1014C000F09103010995FF91EF91BF91AF919F9129
:1014D0008F917F916F915F914F913F912F910F90DD
:1014E0000FBE0F901F9018951F920F920FB60F927C
:1014F00011242F933F934F935F936F937F938F9319
:101500009F93AF93BF93EF93FF93E0910001F0910E
:1015100001010995FF91EF91BF91AF919F918F913B
:101520007F916F915F914F913F912F910F900FBEDF
:101530000F901F9018951F920F920FB60F921124C3
:101540002F933F934F935F936F937F938F939F93CB
:10155000AF93BF93EF93FF9384E093E00E94180250
:10156000FF91EF91BF91AF919F918F917F916F917B
:101570005F914F913F912F910F900FBE0F901F9051
:1015800018951F920F920FB60F9211242F938F93DD
:101590009F93EF93FF93E0911403F09115038081E3
:1015A000E0911A03F0911B0382FD1BC09081809192
:1015B0001D038F5F8F7320911E03821741F0E0910E
:1015C0001D03F0E0EC5FFC4F958F80931D03FF91AE
:1015D000EF919F918F912F910F900FBE0F901F90C1
:1015E00018958081F4CFE4E0F3E01382128288EE54
:1015F00093E0A0E0B0E084839583A683B7838CE179
:1016000091E09183808385EC90E09587848784ECDA
:1016100090E09787868780EC90E0918B808B81ECBF
:1016200090E0938B828B82EC90E0958B848B86ECA0
:1016300090E0978B868B118E128E138E148EE9EBB1
:10164000F3E080E58583168298E0908320E33FEE07
:1016500032832183E2EAF3E0868717868AE0828379
:1016600082E0838381E08093A10317828FE18087EA
:101670001186138612868EE291E09183808308950D
:10168000CF93DF93CDB7DEB7E2970FB6F894DEBF06
:101690000FBECDBF789484B5826084BD84B581606F
:1016A00084BD85B5826085BD85B5816085BD80912D
:1016B0006E00816080936E001092810080918100A5
:1016C000826080938100809181008160809381009D
:1016D000809180008160809380008091B10084605F
:1016E0008093B1008091B00081608093B0008091C0
:1016F0007A00846080937A0080917A00826080937F
:101700007A0080917A00816080937A0080917A00DB
:10171000806880937A001092C100E0911403F091E8
:10172000150382E08083E0911003F0911103108291
:10173000E0911203F091130380E1808310921C0367
:10174000E0911803F091190386E08083E09116037D
:10175000F0911703808180618083E0911603F091FE
:101760001703808188608083E0911603F09117034E
:10177000808180688083E0911603F0911703808157
:101780008F7D80831092B3031092B2031092B7033F
:101790001092B6031092A7028FE18093B40381E008
:1017A0008093B5039091A503923009F0B8C01092D0
:1017B000A603FE0133968CE2DF011D928A95E9F7BC
:1017C00081E0898384E08A8322E02B8393E09D83F8
:1017D0002E838F8380E4888725E029879A8796E087
:1017E0009B8793E39C8797E09D8728E02F8729E0DC
:1017F000298B29E12B8B22E42C8B35E23D8B8E8BC0
:1018000036E23F8B988F98E2998F90E19A8F99E218
:101810009B8F9CED9C8F9EE29D8F98E89E8F9FE210
:101820009F8F9DE298A390E399A337E33BA330E910
:101830003CA338E33DA32EA32CE32FA32FE828A736
:101840002DE329A722E12AA72FE62BA79CA79FEF2C
:101850009DA79CE69E87888B84E68AA361E08091A1
:10186000A4030E94A6008091A4030E948700809197
:10187000AC039091AD03892B31F486EA92E090930A
:10188000AD038093AC030E94F20080E58093B00327
:1018900081E08093B1030E9489014B015C014AEA17
:1018A0006FE282EA93E00E9415046FE282EA93E01D
:1018B0000E944A048A3A59F00E94890168197909FC
:1018C0008A099B09623371058105910540F30E94E5
:1018D00089014B015C0145E56FE282EA93E00E94D9
:1018E00015046FE282EA93E00E944A04853509F00C
:1018F000ACC010E0E12FF0E0EE0FFF1F81E090E0C0
:101900008C0F9D1FE80FF91F60816F3F09F4AAC07B
:10191000418182EA93E00E9415041F5FEBCF933070
:1019200009F490C08FEF8093A60361E082EA93E010
:101930000E9491056DE471E082EA93E00E943F0805
:1019400080EB9FEF9093B3038093B20381E08F937A
:1019500081EB8F938DE591E09F938F938E010F5FC5
:101960001F4F1F930F930E944C0FC8010E94CB087A
:101970008CB58093BC038DB58093BD038091B90372
:101980000E9487000E94F20080E58093BE031092BF
:10199000BF030E94C2030E94D5078BEA0E94D103B5
:1019A0000E94C2030F900F900F900F900F900F9016
:1019B0008091BA039091BB03892B09F0AAC061E022
:1019C00081E00E94F70780E00E94D1030E94C203D9
:1019D00088E791E00E94D70860E08BE40E94F70757
:1019E00080E00E94D10380E00E94D10380E00E9449
:1019F000D10380E00E94D10358EAC52E52E0D52ED3
:101A000060EBA62E62E0B62E860180E00E94D10334
:101A1000D8018D938D01AA16BB06B9F70E94C203A7
:101A2000F60161916F0170E090E080E040E10E947A
:101A3000870880E20E9487020C151D0589F70E9425
:101A4000830875C08093A603B4CE0E9489016819EB
:101A500079098A099B09623371058105910508F4AA
:101A60003ACF47CF70E060E082EA93E00E943F08FF
:101A70006091AB0382EA93E00E94910561E082EA03
:101A800093E00E9427070E9489014B015C0167E2F5
:101A900082EA93E00E944A0487FD0BC00E948901FC
:101AA000681979098A099B096233710581059105D5
:101AB00070F30E948901681979098A099B096233C8
:101AC00071058105910508F030CF8091A603823021
:101AD00090F4E82FF0E0EE0FFF1FE050FF4F25E9F4
:101AE00031E031832083813069F080916900836027
:101AF00080936900E89A82E090E09093A803809335
:101B0000A70313CF809169008C6080936900E99AE4
:101B1000F2CF0E9416082091BA033091BB038217BE
:101B2000930709F44CCF8FE991E00E94CB088EEC2B
:101B300091E00E94CB0824E6322E34E0A32E31E05F
:101B4000B32E48EE842E43E0942E84E093E00E946E
:101B5000F801181619060CF06EC084E093E00E949C
:101B6000D601182F80ED810F8A3000F5812F012ECC
:101B7000000C990BC097389E9001399E300D1124AE
:101B80002115310509F47DC030931701209316010A
:101B90008DEF91E00E94D708809116019091170176
:101BA0000E94D90881E192E00E94CB08123709F027
:101BB0006DC085E192E00E94CB08412C512C32018E
:101BC000439482EA93E00E942E08842D0E94D10360
:101BD00080E00E94D103C82E82EA93E00E94B40301
:101BE00040E1C301B2010E94870889E292E00E94AD
:101BF000D708D12CF12CE12C40E1C701B6010E949D
:101C0000870889E292E00E94D70842E0C701B60146
:101C10000E9487080E948308FFEF4F1A5F0A6F0A2D
:101C20007F0A80E5481651046104710451F682EA86
:101C300093E00E94B40382EA93E00E942A09882379
:101C400009F4B1C08BE50E9487026091F80270919F
:101C5000F90290E080E04AE00E9487088CE692E07A
:101C60000E94D70810E08091F702181708F06FC0A3
:101C7000E12FF0E0E754FD4F80810E9487021F5F53
:101C8000F2CF909217018092160182CF1436D1F5CF
:101C90008DE292E00E94CB088CE392E00E94D7088C
:101CA000412C512C320160E083E00E94F70780E074
:101CB0000E94D103852D0E94D103842D0E94D1035F
:101CC00080E00E94D103182F0E94C203612F70E0B0
:101CD00090E080E040E10E9487088EE20E94870247
:101CE0009FEF491A590A690A790AA1E04A165A0669
:101CF00061047104C1F60E94E7078111FCCF0E94C4
:101D0000830899CF153699F484E492E00E94D708AD
:101D100061E080E60E94F7070E94C2030E94E70785
:101D20008111FCCF8CE592E00E94CB0884CF19365C
:101D300009F081CF81E692E00E94D7080E94160840
:101D4000BC0190E080E040E10E948708D8CF8FE698
:101D500092E00E94D7088091B7029091B8020E9449
:101D6000D9088CE792E00E94D7088091B2028823BC
:101D7000B1F02091A7033091A8038091B002909117
:101D8000B1022817390759F440E06CE471E082EAA7
:101D900093E00E9420058EE792E00E94D7080E94FF
:101DA0004A010E9483080E94890120911601309106
:101DB0001701032E000C440B550B0E94240FA901A0
:101DC000330F660B770B8091B3029091B402A09110
:101DD000B502B091B602481759076A077B0721F18F
:101DE0004093B3025093B4026093B5027093B6026D
:101DF000F50101900020E9F79F01255031408EE167
:101E0000E82E02E044E051E061E070E082EA93E015
:101E10000E94CA028823A9F08AE892E00E94D708AB
:101E20000E9483080E944A0180E090E0892B09F417
:101E30008CCE0E940402882309F487CE0E94000001
:101E400084CE8FE892E0EACFA1E21A2EAA1BBB1B38
:101E5000FD010DC0AA1FBB1FEE1FFF1FA217B30776
:101E6000E407F50720F0A21BB30BE40BF50B661F8C
:101E7000771F881F991F1A9469F760957095809550
:101E800090959B01AC01BD01CF010895EE0FFF1F9E
:101E90000590F491E02D0994AEE0B0E0E2E5FFE0BA
:101EA0000C94FB110D891E8986E08C831A830983AB
:101EB0008FEF9FE79E838D83AE01475E5F4F6F89F3
:101EC000788DCE0101960E946F0F2F813885020F09
:101ED000131FF80110822E96E4E00C941712ABE069
:101EE000B0E0E5E7FFE00C94ED117C013B018A01D5
:101EF000FC0117821682838181FFC8C1CE01019641
:101F00005C01F7019381F30193FD859193FF81912A
:101F10003F01882309F453C1853239F493FD85913B
:101F200093FF81913F01853229F4B70190E00E942F
:101F30005F11E7CF912C212C312CFFE1F31538F004
:101F40008B3211F190F4803209F1833229F137FCA0
:101F50003CC020ED280F2A3050F536FE20C08AE024
:101F6000989E200D1124922E06C08D3291F0803360
:101F700071F7689430F8F30193FD859193FF819197
:101F80003F018111DACF21C0689431F8689432F8AA
:101F9000F2CF689433F8EFCF689434F8ECCFEAE0EE
:101FA0002E9E200D1124222E689435F8E4CF8E3217
:101FB00029F436FC04C1689436F8DDCF8C3619F468
:101FC000689437F8D8CF8836B1F2982F9F7D955412
:101FD0009330E0F08336A1F18337C1F1833509F006
:101FE00063C02801F2E04F0E511CF801C080D1807F
:101FF000692D70E036FC02C06FEF7FEFC6010E94D2
:1020000049114C01689437F882010AC00C5F1F4FD8
:10201000FFE3F98388248394912C6501E89437F8D1
:1020200033FE2DC0522C8114910471F5552009F412
:1020300068CFB70180E290E00E945F115A94F6CF1A
:10204000F801808189830E5F1F4FE4CF2801F2E001
:102050004F0E511CF801C080D180692D70E036FC14
:1020600002C06FEF7FEFC6010E9454114C01820144
:10207000D5CFB70180E290E00E945F112A94281426
:10208000190409F0B0F7CECFF60137FC859137FE81
:1020900081916F01B70190E00E945F1151105A9435
:1020A000F1E08F1A9108BFCF843619F0893609F014
:1020B00077C0F80137FE6BC06081718182819381A6
:1020C0000C5F1F4FF32DFF763F2E97FF09C09095B1
:1020D0008095709561957F4F8F4F9F4F689437F82B
:1020E0002AE030E0A5010E948F11C82ECA188C2C5E
:1020F000432C36FE0CC0E89440F8C91440F434FE7A
:1021000005C032FC03C0F32DFE7E4F2E892C44FE09
:1021100095C0FE01EC0DF11D8081803309F087C070
:10212000242D297E422E842D8870582E43FC95C084
:1021300040FE8FC09C2C821418F42C0C922C981802
:1021400044FE91C0B70180E390E00E945F1142FE1F
:1021500009C088E790E041FE02C088E590E0B70141
:102160000E945F11C91408F48AC0CA94D12C9FEF51
:10217000C91AD90ACA0CDB1CF60182916F01B7019A
:1021800090E00E945F11AC14BD04B1F74FCF6081A5
:102190007181072E000C880B990B0E5F1F4F92CF99
:1021A000D32CE894D4F82AE030E0853739F1232D98
:1021B000297FD22E8F3601F148F48835A9F0F70136
:1021C000868197812B96E2E10C940912803749F0C1
:1021D0008837A9F7D4FE02C06894D2F820E130E035
:1021E0000DC06894D4F8F6CF34FE03C0822F866009
:1021F000D82E20E132E002C028E030E0F801D7FE1E
:102200000FC060817181828193810C5F1F4FA50196
:102210000E948F11C82ECA183D2CE89437F867CF5A
:102220006081718190E080E00E5F1F4FF0CF42FC33
:1022300002C0839478CF8394839475CF842D86785D
:1022400009F471CFF6CFB70180E290E00E945F11F0
:1022500083948214C0F3512C73CF522C58188214DB
:1022600008F46ECFF8CF842D867809F47BCF8BE20B
:1022700041FE80E247FC8DE2B70190E071CFB701EB
:1022800080E390E00E945F119A946CCF8FEF9FEFF4
:1022900099CFFC010590615070400110D8F78095EE
:1022A00090958E0F9F1F0895FC0161507040019022
:1022B0000110D8F7809590958E0F9F1F08950F936A
:1022C0001F93CF93DF93182F092FEB018B8181FD93
:1022D00009C01FEF0FEF812F902FDF91CF911F913A
:1022E0000F91089582FF14C02E813F818C819D81C2
:1022F000281739073CF4E881F981CF0101969983C9
:10230000888310838E819F8101969F838E83E3CF84
:10231000E885F985812F0995892BA1F3DACFFA0198
:10232000AA27283051F1203181F1E8946F936E7F14
:102330006E5F7F4F8F4F9F4FAF4FB1E03ED0B4E005
:102340003CD0670F781F891F9A1FA11D680F791F46
:102350008A1F911DA11D6A0F711D811D911DA11D57
:1023600020D009F468943F912AE0269F1124301967
:10237000305D3193DEF6CF010895462F4770405D02
:102380004193B3E00FD0C9F7F6CF462F4F70405DB1
:102390004A3318F0495D31FD4052419302D0A9F70C
:1023A000EACFB4E0A6959795879577956795BA9506
:1023B000C9F700976105710508959B01AC010A2ECC
:1023C00006945795479537952795BA95C9F7620FA3
:1023D000731F841F951FA01D08952F923F924F9247
:1023E0005F926F927F928F929F92AF92BF92CF92A5
:1023F000DF92EF92FF920F931F93CF93DF93CDB7AE
:10240000DEB7CA1BDB0B0FB6F894DEBF0FBECDBF25
:1024100009942A88398848885F846E847D848C84F6
:102420009B84AA84B984C884DF80EE80FD800C81FF
:102430001B81AA81B981CE0FD11D0FB6F894DEBFE2
:0C2440000FBECDBFED010895F894FFCF52
:10244C009901990168656C6C6F2066726F6D206ED6
:10245C006F6465203200D007000000003A029A0138
:10246C00C7018C02F801D601EA010000000007093F
:10247C005206CA022A0920059105A506D8031005A3
:10248C00E405270734042E08B4030D0A00626C61BE
:10249C0073746675726E616365313233000A5472FF
:1024AC00616E736D697474696E6720617420256444
:1024BC00204D687A2E2E2E0053504920466C6173A5
:1024CC006820496E6974204F4B202E2E2E20556E9D
:1024DC0069717565494420284D4143293A200053C0
:1024EC00504920466C617368204D454D206E6F74C9
:1024FC0020666F756E64202869732063686970208C
:10250C00736F6C64657265643F292E2E2E005246E3
:10251C004D36395F41544320456E61626C656420D1
:10252C00284175746F205472616E736D6973736991
:10253C006F6E20436F6E74726F6C290A000A4368C9
:10254C00616E67696E672064656C617920746F20B9
:10255C00006D730A0041646472657373202D20480A
:10256C004558202D2042494E00202D2000466C61FC
:10257C00736820636F6E74656E743A00302D32355B
:10258C00363A200045726173696E6720466C617340
:10259C00682063686970202E2E2E2000444F4E4513
:1025AC000044657669636549443A20005D2000204B
:1025BC0020205B52585F525353493A005D00202D46
:1025CC002041434B2073656E7400206F6B210066B5
:1025DC006C6173682073656E64206661696C6564F8
:0225EC000000ED
:00000001FF
