:100000000C9462000C94F5090C94CE090C948A00AF
:100010000C948A000C948A000C94740A0C948A0044
:100020000C948A000C948A000C948A000C948A0028
:100030000C948A000C948A000C948A000C948A0018
:100040000C9484090C948A000C94420A0C941C0AA7
:100050000C948A000C948A000C948A000C948A00F8
:100060000C948A000C948A000000000023002600F3
:10007000290000000000240027002A0000000000E2
:10008000250028002B0004040404040404040202D4
:100090000202020203030303030301020408102007
:1000A0004080010204081020010204081020000012
:1000B0000008000201000003040700000000000027
:1000C00000008B0A11241FBECFEFD8E0DEBFCDBFEA
:1000D00011E0A0E0B1E0E4E8F2E202C005900D9288
:1000E000A039B107D9F722E0A0E9B1E001C01D9223
:1000F000AF39B207E1F710E0C2E6D0E004C02197C3
:10010000FE010E94620EC136D107C9F70E94CE0AD5
:100110000C9440110C940000833081F028F481305D
:1001200099F08230A9F008958730A9F08830C9F09D
:100130008430B1F4809180008F7D03C08091800075
:100140008F7780938000089584B58F7784BD08955C
:1001500084B58F7DFBCF8091B0008F778093B00006
:1001600008958091B0008F7DF9CF1F93CF93DF93D7
:10017000282F30E0F901E255FF4F8491F901E6564E
:10018000FF4FD491F901EA57FF4FC491CC23A9F056
:10019000162F81110E948C00EC2FF0E0EE0FFF1F54
:1001A000E458FF4FA591B4918FB7F894EC911111D9
:1001B00008C0D095DE23DC938FBFDF91CF911F91D4
:1001C0000895DE2BF8CFCF93DF9390E0FC01E65645
:1001D000FF4F24918A579F4FFC0184918823D1F0CF
:1001E00090E0880F991FFC01EE58FF4FA591B49144
:1001F000FC01E458FF4FC591D491623071F49FB770
:10020000F8943C91822F809583238C93E8812E2B48
:1002100028839FBFDF91CF9108958FB7F894EC9119
:100220002E2B2C938FBFF6CF3FB7F8948091E60129
:100230009091E701A091E801B091E90126B5A89B52
:1002400005C02F3F19F00196A11DB11D3FBFBA2F68
:10025000A92F982F8827BC01CD01620F711D811D28
:10026000911D42E0660F771F881F991F4A95D1F7AD
:1002700008958F929F92AF92BF92CF92DF92EF92AA
:10028000FF926B017C010E9414014B015C01C114BF
:10029000D104E104F104B9F00E941401681979094C
:1002A0008A099B09683E73408105910580F321E02E
:1002B000C21AD108E108F10888EE880E83E0981E82
:1002C000A11CB11CE4CFFF90EF90DF90CF90BF90C6
:1002D000AF909F908F9008952FB7F8946091E201AE
:1002E0007091E3018091E4019091E5012FBF0895A1
:1002F0008091DF019091E00181609093E001809313
:10030000DF01089581E08093910108950895AF92EF
:10031000BF92CF92DF92EF92FF920F931F93CF93F2
:10032000DF936C017B018B01040F151FEB015E0154
:10033000AE18BF08C017D10759F06991D601ED91E9
:10034000FC910190F081E02DC6010995892B79F788
:10035000C501DF91CF911F910F91FF90EF90DF903A
:10036000CF90BF90AF900895FC01538D448D252F01
:1003700030E0842F90E0821B930B541710F0CF963F
:10038000089501970895FC01918D828D981761F071
:10039000A28DAE0FBF2FB11D5D968C91928D9F5F88
:1003A0009F73928F90E008958FEF9FEF0895FC0167
:1003B000918D828D981731F0828DE80FF11D858D1A
:1003C00090E008958FEF9FEF0895FC01918D228DAD
:1003D000892F90E0805C9F4F821B91098F73992732
:1003E00008958AEE91E00E94E50121E0892B09F44D
:1003F00020E0822F089580E090E0892B29F00E9470
:10040000F10181110C9400000895FC01A48DA80F46
:10041000B92FB11DA35ABF4F2C91848D90E0019646
:100420008F739927848FA689B7892C93A089B18966
:100430008C91837080648C93938D848D981306C007
:100440000288F389E02D80818F7D80830895EF926B
:10045000FF920F931F93CF93DF93EC0181E0888F7E
:100460009B8D8C8D98131AC0E889F989808185FF4E
:1004700015C09FB7F894EE89FF896083E889F989F0
:1004800080818370806480839FBF81E090E0DF91F2
:10049000CF911F910F91FF90EF900895F62E0B8D45
:1004A00010E00F5F1F4F0F731127E02E8C8D8E1100
:1004B0000CC00FB607FCFACFE889F989808185FF67
:1004C000F5CFCE010E940502F1CFEB8DEC0FFD2F91
:1004D000F11DE35AFF4FF0829FB7F8940B8FEA8922
:1004E000FB8980818062CFCFCF93DF93EC01888D31
:1004F0008823B9F0AA89BB89E889F9898C9185FD9F
:1005000003C0808186FD0DC00FB607FCF7CF8C912C
:1005100085FFF2CF808185FFEDCFCE010E940502DD
:10052000E9CFDF91CF9108954115510529F4EAE70C
:10053000F0E080818F7780836A307105B9F0CB015C
:10054000880F991F880F991F807267706860682BE9
:1005500088E10FB6F894A895809360000FBE609371
:100560006000E0E6F0E0808180648083232BD9F492
:1005700083B7817F846083BFF89483B7816083BF32
:1005800085B7806685BF8F7D85BF7894889583B752
:100590008E7F83BF7894452B29F4EAE7F0E08081D1
:1005A00080688083089583B7817F846083BFF894D7
:1005B00083B7816083BF7894889583B78E7F83BF2C
:1005C0007894E9CFCF93DF93EC0161E08A810E94B8
:1005D000B5008C858CBD8D858DBDDF91CF91089543
:1005E000FC018CB584878DB58587968587859CBDF4
:1005F0008DBD60E082810C94B500CF93DF93EB0159
:10060000DC01ED91FC910680F781E02D09958823AE
:1006100079F08091DA019091DB01C817D90711F0C8
:10062000CD2B29F481E090919201911101C080E0DD
:10063000DF91CF9108954F925F926F927F929F9238
:10064000AF92BF92CF92DF92EF92FF920F931F93E0
:10065000CF93DF9300D000D000D0CDB7DEB79E831C
:100660008D836B015A01122FF02E912C2E2D30E02C
:1006700050E040E029833A834B835C838FE1E82E8E
:10068000AD81BE81ED91FC9111970280F381E02D47
:1006900001E0212FA501B601CD0109950E946C0151
:1006A0002B013C010E946C016419750986099709A8
:1006B00029813A814B815C81621773078407950712
:1006C000E8F4B6018D819E810E94FD02882351F3DA
:1006D00026960FB6F894DEBF0FBECDBFDF91CF9147
:1006E0001F910F91FF90EF90DF90CF90BF90AF9050
:1006F0009F907F906F905F904F900895AD81BE81E5
:1007000052968C9152978F3140F453969C91539707
:10071000890F803240F452968C939394F91408F028
:10072000AFCF80E0D5CFED81FE81E28AF6CF4F9248
:100730005F926F927F929F92AF92BF92CF92DF9221
:10074000EF92FF920F931F93CF93DF9300D000D0CF
:1007500000D0CDB7DEB79E838D836B015A01122F77
:10076000F02E912C2E2D30E050E040E029833A838A
:100770004B835C83AD81BE81ED91FC91119702802A
:10078000F381E02D01E0212FA501B601CD010995EE
:100790000E946C012B013C010E946C0164197509D7
:1007A0008609970929813A814B815C816217730719
:1007B00084079507E8F4B6018D819E810E94FD02B1
:1007C000882351F326960FB6F894DEBF0FBECDBF37
:1007D000DF91CF911F910F91FF90EF90DF90CF901D
:1007E000BF90AF909F907F906F905F904F900895D3
:1007F0009394F91408F0BECF80E0E4CF08958EBD45
:1008000000000DB407FEFDCF8EB508951F93CF9362
:10081000DF9360726093950120919201222329F168
:1008200020919501222309F1109199011123E9F0FA
:10083000EC0180E00E94FF0390E091958195910981
:100840009D8B8C8B11501093990128893989211522
:10085000310559F08217930774F48A898F3128F48F
:100860009B89890F803228F48A8BDF91CF911F9169
:1008700008958FE1F9CF28173907BCF78A898823B3
:10088000A1F38150F1CF0F931F93CF93DF93EC012E
:10089000062F142FE881F981008CF18DE02D099548
:1008A000802F80680E94FF03812F0E94FF03E88150
:1008B000F981028CF38DE02DCE01DF91CF911F9154
:1008C0000F9109941F93CF93DF93EC01162F45E509
:1008D00061114DE56AE5CE010E94430440E7111124
:1008E0004CE76CE5CE01DF91CF911F910C9443044E
:1008F0001F93CF93DF93EC01162FE881F981008CD1
:10090000F18DE02D0995812F0E94FF0380E00E9468
:10091000FF03182FE881F981028CF38DE02DCE01C1
:100920000995812FDF91CF911F9108957F928F922A
:100930009F92AF92BF92CF92DF92EF92FF920F936E
:100940001F93CF93DF93EC014B01F42ED52E722E23
:10095000E881F9810488F589E02D61E0099567E275
:10096000CE010E94780487FFFACF10E0E1101C2D21
:10097000170D1E3308F01DE3E881F981008CF18D1D
:10098000E02DCE01099580E80E94FF0383E0810FEE
:100990000E94FF03882D0E94FF038D810E94FF03A8
:1009A0008FEF8816910491F188F1C40126E09695A5
:1009B00087952A95E1F78C702D813E812F3F310577
:1009C00021F018F0932F9370892BEE2009F190E01D
:1009D000C11090E28068892B0E94FF03CC2049F06F
:1009E000C501B7FE03C09195819591090E94FF034F
:1009F00011500F2D8F2C9D2C882D801B8117A0F45A
:100A0000F40181914F010E94FF03F6CF80E0D4CF23
:100A1000002339F02889398990E4232B09F090E6E6
:100A2000892B0E94FF03E5CFE881F981028CF38DC9
:100A3000E02DCE010995E881F9810488F589E02D42
:100A400064E0CE01099568E2CE010E94780483FF3C
:100A5000FACFE881F9810488F589E02D61E0CE01C3
:100A6000DF91CF911F910F91FF90EF90DF90CF908A
:100A7000BF90AF909F908F907F900994AF92BF925C
:100A8000CF92EF920F93B12CA12CC12C0E9496040F
:100A90000F91EF90CF90BF90AF9008954F925F92DB
:100AA0006F927F928F929F92AF92BF92CF92DF927E
:100AB000EF92FF920F931F93CF93DF93EC012B01E3
:100AC000142F109298016090DA017090DB018090F1
:100AD0009A0190909B018091950101E0811101C0E4
:100AE00000E06DE3CE010E947804482F44606DE37E
:100AF000CE010E9443040E946C016B017C01E881DD
:100B0000F9810190F081E02DCE010995811113C08A
:100B10000E946C016C197D098E099F09683E734023
:100B20008105910540F4E881F9810680F781E02D87
:100B3000CE010995E4CF7092DB016092DA01540195
:100B4000C02EEE24E39400E0212FA201B301CE01D8
:100B50000E94960490929B0180929A01DF91CF911E
:100B60001F910F91FF90EF90DF90CF90BF90AF90CB
:100B70009F908F907F906F905F904F900895CF934C
:100B8000DF93EC0169874AE161114FE063E1CE0137
:100B90000E9443048985882369F061E1CE010E94A7
:100BA00078048F71482F406661E1CE01DF91CF91CB
:100BB0000C94430448854068F7CFCF93DF93EC0152
:100BC000109299011092DB011092DA0110929701B4
:100BD0001092960110929001109298011092920139
:100BE00010929B0110929A0168E20E94780482FFA1
:100BF0000AC06DE3CE010E947804482F44606DE383
:100C0000CE010E94430440E465E2CE010E94430409
:100C1000E881F9810488F589E02D63E0CE01DF9158
:100C2000CF910994109295010C94DD054F925F923B
:100C30006F927F928F929F92AF92BF92CF92DF92EC
:100C4000EF920F931F93CF93DF93EC014B01142F7F
:100C500010929801C090DA01D090DB01A0909A0127
:100C6000B0909B016DE30E947804482F44606DE3CF
:100C7000CE010E9443040E946C012B013C01E881DB
:100C8000F9810190F081E02DCE010995811113C009
:100C90000E946C016419750986099709683E7340C2
:100CA0008105910540F4E881F9810680F781E02D06
:100CB000CE010995E4CFD092DB01C092DA01E88140
:100CC000F9810088F189E02DEE24E39400E0212FE2
:100CD000A401B601CE010995B0929B01A0929A01A0
:100CE000DF91CF911F910F91EF90DF90CF90BF9048
:100CF000AF909F908F907F906F905F904F900895EE
:100D00004F925F926F927F92AF92BF92CF92DF929B
:100D1000EF920F931F93CF93DF93EC016B015A0176
:100D2000122F6DE30E947804482F44606DE3CE01DA
:100D30000E9443040E946C012B013C01E881F9816F
:100D40000190F081E02DCE010995811113C00E9420
:100D50006C016419750986099709683E734081051D
:100D6000910540F4E881F9810680F781E02DCE01FC
:100D70000995E4CFE881F9810088F189E02DE12C23
:100D8000212FA501B601CE010995DF91CF911F91C9
:100D90000F91EF90DF90CF90BF90AF907F906F90CA
:100DA0005F904F900895CF93DF93EC01603208F08D
:100DB0006FE168878985882311F06695688761E10E
:100DC000CE010E947804807E4885482B61E1CE01E7
:100DD000DF91CF910C9443041F93CF93DF93209125
:100DE0008702261761F0162FEC01623009F445C026
:100DF00050F4662309F453C0613009F449C0DF910F
:100E0000CF911F910895633021F16430C1F761E003
:100E10000E947804837E482F4C6061E0CE010E94DE
:100E200043048985882341F0E881F9810688F789A0
:100E3000E02D61E0CE01099580918702811106C005
:100E400067E2CE010E94780487FFF6CF10938702F5
:100E5000D6CF61E00E947804837E482F406161E034
:100E6000CE010E9443048985882331F3E881F9810A
:100E70000688F789E02D60E0DDCF61E00E9478040C
:100E8000837E482F486061E0CE010E944304D4CFA6
:100E900061E00E947804837E482F4460F4CF61E0D3
:100EA0000E947804482F437EEECF1F93CF93DF93A9
:100EB000209187022617A9F0162FEC010E94EC065C
:100EC000143079F488899989892B59F0E881F9815E
:100ED0000484F585E02D6A89CE01DF91CF911F91C1
:100EE0000994DF91CF911F910895EF92FF920F9394
:100EF0001F93CF93DF938C01EB0161E00E945507B4
:100F0000209741F18881882329F1C8010E94F002CD
:100F10008EEB0E94FF037E0180E1E80EF11C8991B7
:100F20000E94FF03EC16FD06D1F7C8010E94E20201
:100F3000C1E06DE3C8010E9478048E7F482F4C2BDE
:100F40006DE3C801DF91CF911F910F91FF90EF905A
:100F50000C944304C0E0EDCFAF92BF92CF92DF92EA
:100F6000EF92FF920F931F93CF93DF93EC016B01EE
:100F7000B42EA52EF22E102FE881F9810488F58970
:100F8000E02D61E0099567E2CE010E94780487FFB9
:100F9000FACF0F2D0E3308F00DE3E1103DC0112301
:100FA000E9F110E48FEFC816D10449F040F0C60112
:100FB00026E0969587952A95E1F78C70182B8D8100
:100FC0009E818F3F910521F018F0892F8370182B97
:100FD000E881F981008CF18DE02DCE01099580E842
:100FE0000E94FF0383E0800F0E94FF038C2D0E946C
:100FF000FF038D810E94FF03812F0E94FF031B2DA1
:10100000EB2CFA2C8E2D811B801750F4F701819167
:101010007F010E94FF03F6CF10E8C4CF10E0C2CFDB
:10102000E881F981028CF38DE02DCE010995E881EC
:10103000F9810488F589E02D64E0CE01099568E224
:10104000CE010E94780483FFFACFE881F9810488F9
:10105000F589E02D61E0CE01DF91CF911F910F91D5
:10106000FF90EF90DF90CF90BF90AF900994FC017C
:1010700001900020E9F73197AF01481B590BBC01E3
:101080008AEE91E00C9487018F929F92AF92BF926B
:101090000F931F93CF93DF93CDB7DEB7A1970FB612
:1010A000F894DEBF0FBECDBF19A2423008F44AE06B
:1010B0008E010F5D1F4F842E912CB12CA12CA50108
:1010C00094010E94400EE62FB901CA01EA30F4F4FF
:1010D000E05DD801EE938D01232B242B252B79F78E
:1010E00090E080E0109719F0CD010E943708A1969A
:1010F0000FB6F894DEBF0FBECDBFDF91CF911F9129
:101100000F91BF90AF909F908F900895E95CE1CFD1
:10111000CF93DF9320918702233021F080E0DF918D
:10112000CF910895209190012111F8CFEC0164E254
:101130000E94780490E09195819591098C349F4F9D
:101140006CF7E881F9810488F589E02D61E0CE0132
:10115000099581E0E4CFEF92FF920F931F93CF9315
:10116000DF93EC0180919101882309F468C080919C
:10117000870210929101833009F0AEC068E2CE017F
:101180000E94780482FFA8C0E881F9810488F5896B
:10119000E02D61E0CE010995E881F981008CF18DA7
:1011A000E02DCE01099580E00E94FF0380E00E94BF
:1011B000FF03082F182F833408F012E410939001D6
:1011C00080E00E94FF03E82E80E00E94FF03F82EDB
:1011D00080E00E94FF03282F30E0A90166E0440F61
:1011E000551F6A95E1F7442753704E295093970194
:1011F00040939601322F2227222733702F293093D4
:10120000DB012093DA019F81E881F981911107C008
:101210002D813E814217530711F0452B11F4033005
:1012200040F510929001028CF38DE02DCE010995CE
:10123000E881F9810288F389E02DCE01099580913A
:101240008702833009F057C080919001882309F408
:1012500059C0E881F9810488F589E02D61E0CE016B
:10126000099581E0DF91CF911F910F91FF90EF9051
:101270000895135010939901982F907890939201AC
:10128000982F9074909398010684F785E02D682F2D
:10129000CE01099510E0E09199011E1750F480E00D
:1012A0000E94FF03E12FF0E0E456FE4F80831F5FB2
:1012B000F2CFF0E0E456FE4F1082E881F981028C13
:1012C000F38DE02DCE010995E881F9810488F58937
:1012D000E02D63E0CE01099564E2CE010E9478041E
:1012E00090E09195819591099595879590939B01B3
:1012F00080939A01A4CFE881F9810288F389E02DD7
:10130000CE01099580E0AECF1F920F920FB60F92DB
:1013100011242F933F938F939F93AF93BF9380910B
:10132000E2019091E301A091E401B091E5013091D7
:10133000E10123E0230F2D3758F50196A11DB11DC2
:101340002093E1018093E2019093E301A093E401F3
:10135000B093E5018091E6019091E701A091E80149
:10136000B091E9010196A11DB11D8093E601909312
:10137000E701A093E801B093E901BF91AF919F917C
:101380008F913F912F910F900FBE0F901F90189546
:1013900026E8230F0296A11DB11DD2CF1F920F92F6
:1013A0000FB60F9211242F933F934F935F936F9338
:1013B0007F938F939F93AF93BF93EF93FF93E091AE
:1013C0000201F09103010995FF91EF91BF91AF9157
:1013D0009F918F917F916F915F914F913F912F914D
:1013E0000F900FBE0F901F9018951F920F920FB67F
:1013F0000F9211242F933F934F935F936F937F939B
:101400008F939F93AF93BF93EF93FF93E09100016E
:10141000F09101010995FF91EF91BF91AF919F91DB
:101420008F917F916F915F914F913F912F910F908D
:101430000FBE0F901F9018951F920F920FB60F922C
:1014400011242F933F934F935F936F937F938F93C9
:101450009F93AF93BF93EF93FF938AEE91E00E9427
:101460000502FF91EF91BF91AF919F918F917F9175
:101470006F915F914F913F912F910F900FBE0F9001
:101480001F9018951F920F920FB60F9211242F9351
:101490008F939F93EF93FF93E091FA01F091FB01FB
:1014A0008081E0910002F091010282FD1BC09081D9
:1014B000809103028F5F8F7320910402821741F0A5
:1014C000E0910302F0E0E651FE4F958F8093030216
:1014D000FF91EF919F918F912F910F900FBE0F90E1
:1014E0001F9018958081F4CF1F920F920FB60F9224
:1014F00011248F930FB6F894A895809160008861AD
:1015000080936000109260000FBE8F910F900FBE0D
:101510000F901F901895EAEEF1E01382128288EE88
:1015200093E0A0E0B0E084839583A683B78388E04E
:1015300091E09183808385EC90E09587848784ECAB
:1015400090E09787868780EC90E0918B808B81EC90
:1015500090E0938B828B82EC90E0958B848B86EC71
:1015600090E0978B868B118E128E138E148EE8E886
:10157000F2E080E5868717868AE0828382E08383B3
:1015800081E08093870217828FE18087118613861E
:1015900012868AE191E0918380830895CF93DF934F
:1015A000CDB7DEB7E2970FB6F894DEBF0FBECDBF62
:1015B000789484B5826084BD84B5816084BD85B52E
:1015C000826085BD85B5816085BD80916E0081603A
:1015D00080936E00109281008091810082608093E0
:1015E00081008091810081608093810080918000E2
:1015F0008160809380008091B10084608093B1000D
:101600008091B00081608093B00080917A00846006
:1016100080937A0080917A00826080937A00809132
:101620007A00816080937A0080917A00806880934C
:101630007A001092C100E091FA01F091FB0182E082
:101640008083E091F601F091F7011082E091F801BA
:10165000F091F90180E1808310920202E091FE0195
:10166000F091FF0186E08083E091FC01F091FD01A3
:10167000808180618083E091FC01F091FD01808197
:1016800088608083E091FC01F091FD018081806899
:101690008083E091FC01F091FD0180818F7D80834A
:1016A000109299021092980210929D0210929C0240
:1016B000109295018FE180939A0281E080939B02C2
:1016C00090918B02923009F0EAC010928C02FE01D8
:1016D00033968CE2DF011D928A95E9F781E08983D8
:1016E00084E08A8322E02B8393E09D832E838F8383
:1016F00080E4888725E029879A8796E09B8793E393
:101700009C8797E09D8728E02F8729E0298B29E196
:101710002B8B22E42C8B35E23D8B8E8B36E23F8B7C
:10172000988F98E2998F90E19A8F99E29B8F9CED28
:101730009C8F9EE29D8F98E89E8F9FE29F8F9DE2F7
:1017400098A390E399A337E33BA330E93CA338E3A4
:101750003DA32EA32CE32FA32FE828A72DE329A731
:1017600022E12AA72FE62BA79CA79FEF9DA79CE627
:101770009E87888B84E68AA361E080918A020E941A
:10178000B50061E080918A020E94E300809192029C
:1017900090919302892B31F484E991E09093930224
:1017A000809392021FB7F89480919301811127C012
:1017B000E0E9F0E08491E4EAF0E09491E82FF0E0D1
:1017C000EE0FFF1FEE58FF4FA591B491EC91E92366
:1017D00021F461E08AE00E94B50061E08AE00E94A5
:1017E000E3008CB580618CBD8CB580648CBD61E0FC
:1017F0008DE00E94E30061E08BE00E94E3008091B5
:1018000093018F5F809393011FBF80E580939602C1
:1018100081E0809397020E946C014B015C014AEACF
:101820006FE288E892E00E9443046FE288E892E069
:101830000E9478048A3A59F00E946C01681979096B
:101840008A099B09623371058105910540F30E9465
:101850006C014B015C0145E56FE288E892E00E9473
:1018600043046FE288E892E00E947804853509F02D
:1018700088C110E0E12FF0E0EE0FFF1F81E090E063
:101880008C0F9D1FE80FF91F60816F3F09F486C11F
:10189000418188E892E00E9443041F5FEBCF9330C0
:1018A00009F46CC18FEF80938C0261E088E892E0CC
:1018B0000E94BF0566E371E088E892E00E94750728
:1018C00085EB9FEF909399028093980281E08F932C
:1018D00081EB8F9383E491E09F938F938E010F5F51
:1018E0001F4F1F930F930E94680EC8010E94370874
:1018F0008BE591E00E9437088AEE91E00E94740225
:1019000062E083E00E94E30061E089E00E94E3007E
:1019100088E791E090930301809302018091690030
:10192000837F886080936900E99A61E084E00E9487
:10193000E30061E085E00E94E30061E087E00E944F
:10194000E30060E084E00E94B50061E085E00E9471
:10195000B5000F900F900F900F900F900F9021EB0C
:10196000A22E20E0B22E3DE9832E30E0932E49E8EE
:10197000642E40E0742E50E0C52E50E0D52E11E0CC
:101980008091DF019091E00180FF1DC021E030E0F7
:1019900050E040E063E070E08EED91E00E94940240
:1019A0008091DF019091E0018E7F9093E001809320
:1019B000DF01F5018491F4010491F301F490F11039
:1019C00044C11093DD018091DD01882309F43DC0FD
:1019D0008EE591E00E9437088BE591E00E94370880
:1019E0001092DD018091DC0181113FC11093DC0177
:1019F00061E084E00E94B50060E085E00E94B500EF
:101A00008EE1E82E02E022E04EE651E061E070E077
:101A100088E892E00E941B038823B9F003E061E0AC
:101A200089E00E94B50068E270E080E090E00E94EA
:101A3000390160E089E00E94B50068E270E080E072
:101A400090E00E943901015051F788E892E00E942D
:101A5000AB08882309F474C06BE58AEE91E00E941C
:101A600027026091DA017091DB0190E080E04AE0AA
:101A70000E94440881E791E00E9437088CE991E0D8
:101A80000E94370884E791E00E94370820909A016D
:101A900030909B01032C000C440855084AE0C20119
:101AA000B10157FE0DC06DE28AEE91E00E9427025F
:101AB00066277727CB0162197309840995094AE0E3
:101AC0000E94440881E891E00E9437088BE591E08C
:101AD0000E943708809199018230C1F480919C0165
:101AE0008834A1F480919D01893681F48091DC01D4
:101AF0008111C3C01093DC010091DC01602F89E0EB
:101B00000E94B500602F87E00E94B5008091980187
:101B10008823B1F020918D0230918E028091960140
:101B2000909197012817390759F440E06DE571E06D
:101B300088E892E00E944E0583E891E00E94370811
:101B400088E892E00E94AB088AEE91E00E9474025D
:101B500021E030E050E040E069E070E08EED91E09F
:101B60000E949402C114D10409F40ACF0E94F10129
:101B7000882309F405CF0E94000002CF80938C02D5
:101B8000A6CD0E946C01681979098A099B09623304
:101B900071058105910508F45ECE6BCE70E060E0C2
:101BA00088E892E00E9475076091910288E892E0CF
:101BB0000E94BF0561E088E892E00E9455070E94FC
:101BC0006C014B015C0167E288E892E00E947804B6
:101BD00087FD0BC00E946C01681979098A099B096D
:101BE000623371058105910570F30E946C016819DB
:101BF00079098A099B09623371058105910508F00D
:101C000054CE80918C02823090F4E82FF0E0EE0FF9
:101C1000FF1FE050FF4F22E831E031832083813005
:101C200069F080916900836080936900E89A81E09F
:101C300090E090938E0280938D0237CE8091690060
:101C40008C6080936900E99AF2CF81110E948C0028
:101C5000EF2DF0E0EE0FFF1FE859FF4FA591B49173
:101C60008C91082309F4ADCEAECE1092DC0160E079
:101C700084E00E94B50061E0C0CE1092DC013CCF50
:101C8000A1E21A2EAA1BBB1BFD010DC0AA1FBB1F80
:101C9000EE1FFF1FA217B307E407F50720F0A21BF2
:101CA000B30BE40BF50B661F771F881F991F1A945F
:101CB00069F760957095809590959B01AC01BD0189
:101CC000CF010895EE0FFF1F0590F491E02D0994C8
:101CD000AEE0B0E0EEE6FEE00C9417110D891E892F
:101CE00086E08C831A8309838FEF9FE79E838D8321
:101CF000AE01475E5F4F6F89788DCE0101960E94DD
:101D00008B0E2F813885020F131FF80110822E963B
:101D1000E4E00C943311ABE0B0E0E1E9FEE00C94B8
:101D200009117C013B018A01FC0117821682838123
:101D300081FFC8C1CE0101965C01F7019381F301D7
:101D400093FD859193FF81913F01882309F453C14D
:101D5000853239F493FD859193FF81913F0185325E
:101D600029F4B70190E00E947B10E7CF912C212C41
:101D7000312CFFE1F31538F08B3211F190F4803201
:101D800009F1833229F137FC3CC020ED280F2A30BD
:101D900050F536FE20C08AE0989E200D1124922E28
:101DA00006C08D3291F0803371F7689430F8F301FA
:101DB00093FD859193FF81913F018111DACF21C07D
:101DC000689431F8689432F8F2CF689433F8EFCF22
:101DD000689434F8ECCFEAE02E9E200D1124222ED8
:101DE000689435F8E4CF8E3229F436FC04C1689447
:101DF00036F8DDCF8C3619F4689437F8D8CF8836AA
:101E0000B1F2982F9F7D95549330E0F08336A1F185
:101E10008337C1F1833509F063C02801F2E04F0E2A
:101E2000511CF801C080D180692D70E036FC02C0E1
:101E30006FEF7FEFC6010E9465104C01689437F880
:101E400082010AC00C5F1F4FFFE3F983882483944B
:101E5000912C6501E89437F833FE2DC0522C811483
:101E6000910471F5552009F468CFB70180E290E044
:101E70000E947B105A94F6CFF801808189830E5F0F
:101E80001F4FE4CF2801F2E04F0E511CF801C08033
:101E9000D180692D70E036FC02C06FEF7FEFC60184
:101EA0000E9470104C018201D5CFB70180E290E012
:101EB0000E947B102A942814190409F0B0F7CECFA1
:101EC000F60137FC859137FE81916F01B70190E0F3
:101ED0000E947B1051105A94F1E08F1A9108BFCFE5
:101EE000843619F0893609F077C0F80137FE6BC0E7
:101EF00060817181828193810C5F1F4FF32DFF768A
:101F00003F2E97FF09C090958095709561957F4F02
:101F10008F4F9F4F689437F82AE030E0A5010E9468
:101F2000AB10C82ECA188C2C432C36FE0CC0E8947B
:101F300040F8C91440F434FE05C032FC03C0F32D50
:101F4000FE7E4F2E892C44FE95C0FE01EC0DF11D46
:101F50008081803309F087C0242D297E422E842D74
:101F60008870582E43FC95C040FE8FC09C2C821474
:101F700018F42C0C922C981844FE91C0B70180E301
:101F800090E00E947B1042FE09C088E790E041FE8D
:101F900002C088E590E0B7010E947B10C91408F4E4
:101FA0008AC0CA94D12C9FEFC91AD90ACA0CDB1C6B
:101FB000F60182916F01B70190E00E947B10AC1492
:101FC000BD04B1F74FCF60817181072E000C880BE3
:101FD000990B0E5F1F4F92CFD32CE894D4F82AE0D0
:101FE00030E0853739F1232D297FD22E8F3601F14C
:101FF00048F48835A9F0F701868197812B96E2E1B4
:102000000C942511803749F08837A9F7D4FE02C017
:102010006894D2F820E130E00DC06894D4F8F6CF8F
:1020200034FE03C0822F8660D82E20E132E002C049
:1020300028E030E0F801D7FE0FC060817181828115
:1020400093810C5F1F4FA5010E94AB10C82ECA18C8
:102050003D2CE89437F867CF6081718190E080E093
:102060000E5F1F4FF0CF42FC02C0839478CF839461
:10207000839475CF842D867809F471CFF6CFB7019C
:1020800080E290E00E947B1083948214C0F3512C74
:1020900073CF522C5818821408F46ECFF8CF842DC9
:1020A000867809F47BCF8BE241FE80E247FC8DE22B
:1020B000B70190E071CFB70180E390E00E947B1000
:1020C0009A946CCF8FEF9FEF99CFFC0105906150F0
:1020D00070400110D8F7809590958E0F9F1F08953E
:1020E000FC016150704001900110D8F780959095E7
:1020F0008E0F9F1F08950F931F93CF93DF93182F79
:10210000092FEB018B8181FD09C01FEF0FEF812F9C
:10211000902FDF91CF911F910F91089582FF14C0EE
:102120002E813F818C819D81281739073CF4E881FD
:10213000F981CF0101969983888310838E819F81D5
:1021400001969F838E83E3CFE885F985812F0995DA
:10215000892BA1F3DACFFA01AA27283051F12031D7
:1021600081F1E8946F936E7F6E5F7F4F8F4F9F4F2B
:10217000AF4FB1E03ED0B4E03CD0670F781F891F6D
:102180009A1FA11D680F791F8A1F911DA11D6A0F3B
:10219000711D811D911DA11D20D009F468943F91EE
:1021A0002AE0269F11243019305D3193DEF6CF01ED
:1021B0000895462F4770405D4193B3E00FD0C9F7B3
:1021C000F6CF462F4F70405D4A3318F0495D31FD20
:1021D0004052419302D0A9F7EACFB4E0A695979573
:1021E000879577956795BA95C9F700976105710549
:1021F00008959B01AC010A2E069457954795379593
:102200002795BA95C9F7620F731F841F951FA01DEC
:1022100008952F923F924F925F926F927F928F928A
:102220009F92AF92BF92CF92DF92EF92FF920F9365
:102230001F93CF93DF93CDB7DEB7CA1BDB0B0FB66F
:10224000F894DEBF0FBECDBF09942A88398848882C
:102250005F846E847D848C849B84AA84B984C884C2
:10226000DF80EE80FD800C811B81AA81B981CE0FB9
:10227000D11D0FB6F894DEBF0FBECDBFED0108959E
:04228000F894FFCF00
:10228400860186010000000027028701B401740260
:10229400E501C301D70100000000880880061B0384
:1022A400AB084E05BF05D30606043E0512065507C6
:1022B4006204F002E202626C6173746675726E61AC
:1022C4006365000A4C697374656E696E6720617496
:1022D400202564204D687A2E2E2E000D0A004275AA
:1022E40074746F6E2070726573736564210048693D
:1022F400005D20002020205B52585F525353493A1E
:10230400005D00202D2041434B2073656E74000056
:00000001FF
