:100000000C945D000C943A0A0C94130A0C9485002D
:100010000C9485000C9485000C9485000C9485004C
:100020000C9485000C9485000C9485000C9485003C
:100030000C9485000C9485000C9485000C9485002C
:100040000C94C9090C9485000C94870A0C94610ADD
:100050000C9485000C9485000C9485000C9485000C
:100060000C9485000C94850000000008000201003B
:100070000003040700000000000000000000000072
:10008000250028002B0000000000240027002A0083
:10009000040404040404040402020202020203032E
:1000A0000303030301020408102040800102040836
:1000B0001020010204081020B90A11241FBECFEF3E
:1000C000D8E0DEBFCDBF12E0A0E0B1E0E8E3F8E2A7
:1000D00002C005900D92AE3AB107D9F723E0AEEA1F
:1000E000B2E001C01D92AE3CB207E1F710E0CDE5F1
:1000F000D0E004C02197FE010E94A50FCC35D107A6
:10010000C9F70E94060B0C941A140C94000090E09E
:10011000FC01EC55FF4F249180579F4FFC018491C7
:10012000882399F090E0880F991FFC01EA57FF4F50
:10013000A591B491FC01E458FF4F859194918FB73C
:10014000F894EC91E22BEC938FBF089590E0FC01C2
:10015000E859FF4F2491FC01EC55FF4F3491FC010D
:10016000E057FF4FE491EE23C9F0222339F023300A
:1001700001F1A8F4213019F1223029F1F0E0EE0F5D
:10018000FF1FE458FF4FA591B4918FB7F894EC91FD
:10019000611126C030953E233C938FBF08952730D0
:1001A000A9F02830C9F0243049F7809180008F7D74
:1001B00003C0809180008F7780938000DFCF84B56B
:1001C0008F7784BDDBCF84B58F7DFBCF8091B0006E
:1001D0008F778093B000D2CF8091B0008F7DF9CF20
:1001E0003E2BDACFCF93CFB7F894809111038111D2
:1001F00024C0EAE9F0E08491EEEAF0E09491E82F7F
:10020000F0E0EE0FFF1FEA57FF4FA591B491EC917C
:10021000E92321F461E08AE00E94A6008AE00E94BE
:1002200087008CB580618CBD8CB580648CBD8DE001
:100230000E9487008BE00E948700809111038F5FEE
:1002400080931103CFBFCF9108953FB7F894809169
:100250000D0390910E03A0910F03B091100326B5EA
:10026000A89B05C02F3F19F00196A11DB11D3FBFEE
:10027000BA2FA92F982F8827BC01CD01620F711DBD
:10028000811D911D42E0660F771F881F991F4A95B7
:10029000D1F708958F929F92AF92BF92CF92DF9243
:1002A000EF92FF926B017C010E9425014B015C01E2
:1002B000C114D104E104F104B9F00E9425016819C8
:1002C00079098A099B09683E73408105910580F38D
:1002D00021E0C21AD108E108F10888EE880E83E017
:1002E000981EA11CB11CE4CFFF90EF90DF90CF903F
:1002F000BF90AF909F908F9008952FB7F894609122
:10030000090370910A0380910B0390910C032FBF96
:10031000089581E08093B00208950895AF92BF924E
:10032000CF92DF92EF92FF920F931F93CF93DF93C1
:100330006C017B018B01040F151FEB015E01AE18F0
:10034000BF08C017D10759F06991D601ED91FC9112
:100350000190F081E02DC6010995892B79F7C5013F
:10036000DF91CF911F910F91FF90EF90DF90CF9091
:10037000BF90AF900895FC01538D448D252F30E040
:10038000842F90E0821B930B541710F0CF960895A2
:1003900001970895FC01918D828D981761F0A28DCF
:1003A000AE0FBF2FB11D5D968C91928D9F5F9F7395
:1003B000928F90E008958FEF9FEF0895FC01918D4B
:1003C000828D981731F0828DE80FF11D858D90E0B8
:1003D00008958FEF9FEF0895FC01918D228D892F55
:1003E00090E0805C9F4F821B91098F73992708953D
:1003F00082E193E00E94EC0121E0892B09F420E0E6
:10040000822F089580E090E0892B29F00E94F80166
:1004100081110C9400000895FC01A48DA80FB92F40
:10042000B11DA35ABF4F2C91848D90E001968F731C
:100430009927848FA689B7892C93A089B1898C913B
:10044000837080648C93938D848D981306C002888A
:10045000F389E02D80818F7D80830895EF92FF9254
:100460000F931F93CF93DF93EC0181E0888F9B8DD7
:100470008C8D98131AC0E889F989808185FF15C091
:100480009FB7F894EE89FF896083E889F9898081B4
:100490008370806480839FBF81E090E0DF91CF9183
:1004A0001F910F91FF90EF900895F62E0B8D10E0A5
:1004B0000F5F1F4F0F731127E02E8C8D8E110CC014
:1004C0000FB607FCFACFE889F989808185FFF5CF5F
:1004D000CE010E940C02F1CFEB8DEC0FFD2FF11D30
:1004E000E35AFF4FF0829FB7F8940B8FEA89FB899C
:1004F00080818062CFCF682F82E193E00C942E023E
:10050000CF93DF93EC01888D8823B9F0AA89BB894A
:10051000E889F9898C9185FD03C0808186FD0DC035
:100520000FB607FCF7CF8C9185FFF2CF808185FF56
:10053000EDCFCE010E940C02E9CFDF91CF9108955B
:10054000CF93DF93EB01DC01ED91FC910680F78105
:10055000E02D0995882379F08091010390910203A1
:10056000C817D90711F0CD2B29F481E09091B10281
:10057000911101C080E0DF91CF9108954F925F9279
:100580006F927F929F92AF92BF92CF92DF92EF9243
:10059000FF920F931F93CF93DF9300D000D000D032
:1005A000CDB7DEB79E838D836B015A01122FF02EDB
:1005B000912C2E2D30E050E040E029833A834B838C
:1005C0005C838FE1E82EAD81BE81ED91FC911197A6
:1005D0000280F381E02D01E0212FA501B601CD01BC
:1005E00009950E947D012B013C010E947D01641947
:1005F00075098609970929813A814B815C816217C7
:10060000730784079507E8F4B6018D819E810E94E7
:10061000A002882351F326960FB6F894DEBF0FBED2
:10062000CDBFDF91CF911F910F91FF90EF90DF90A1
:10063000CF90BF90AF909F907F906F905F904F90C2
:100640000895AD81BE8152968C9152978F3140F4BE
:1006500053969C915397890F803240F452968C9315
:100660009394F91408F0AFCF80E0D5CFED81FE81EF
:10067000E28AF6CF4F925F926F927F929F92AF92F3
:10068000BF92CF92DF92EF92FF920F931F93CF937F
:10069000DF9300D000D000D0CDB7DEB79E838D832E
:1006A0006B015A01122FF02E912C2E2D30E050E0CC
:1006B00040E029833A834B835C83AD81BE81ED9119
:1006C000FC9111970280F381E02D01E0212FA5011B
:1006D000B601CD0109950E947D012B013C010E94CC
:1006E0007D01641975098609970929813A814B8131
:1006F0005C816217730784079507E8F4B6018D8162
:100700009E810E94A002882351F326960FB6F8948A
:10071000DEBF0FBECDBFDF91CF911F910F91FF9034
:10072000EF90DF90CF90BF90AF909F907F906F90B1
:100730005F904F9008959394F91408F0BECF80E035
:10074000E4CF08958FB7F8948091AE028FBF0895DB
:10075000CF93DF93EC0161E08A810E94A6008C8533
:100760008CBD8D858DBDDF91CF910895CF93DF93A3
:10077000C0EBD3E061E088810E94A6008B818CBD34
:100780008C818DBDDF91CF9108958EBD00000DB499
:1007900007FEFDCF8EB508951F93CF93DF93607250
:1007A0006093B3022091B102222329F12091B30278
:1007B000222309F11091FE021123E9F0EC0180E0FF
:1007C0000E94C50390E09195819591099D8B8C8B3A
:1007D00011501093FE02288939892115310559F0ED
:1007E0008217930774F48A898F3128F49B89890FC3
:1007F000803228F48A8BDF91CF911F9108958FE189
:10080000F9CF28173907BCF78A898823A1F38150CB
:10081000F1CF0F931F93CF93DF93EC01062F142F8B
:10082000E881F981008CF18DE02D0995802F806899
:100830000E94C503812F0E94C503E881F981028CC3
:10084000F38DE02DCE01DF91CF911F910F9109948F
:100850001F93CF93DF93EC01162F45E561114DE512
:100860006AE5CE010E94090440E711114CE76CE5EE
:10087000CE01DF91CF911F910C9409041F93CF9368
:10088000DF93EC01162FE881F981008CF18DE02DCA
:100890000995812F0E94C50380E00E94C503182F8F
:1008A000E881F981028CF38DE02DCE010995812F2D
:1008B000DF91CF911F9108957F928F929F92AF9277
:1008C000BF92CF92DF92EF92FF920F931F93CF933D
:1008D000DF93EC014B01F42ED52E722EE881F981C5
:1008E0000488F589E02D61E0099567E2CE010E9458
:1008F0003E0487FFFACF10E0E1101C2D170D1E33C8
:1009000008F01DE3E881F981008CF18DE02DCE0126
:10091000099580E80E94C50383E0810F0E94C5030A
:10092000882D0E94C5038D810E94C5038FEF881614
:10093000910491F188F1C40126E0969587952A9556
:10094000E1F78C702D813E812F3F310521F018F0A9
:10095000932F9370892BEE2009F190E0C11090E263
:100960008068892B0E94C503CC2049F0C501B7FEE1
:1009700003C09195819591090E94C50311500F2DD7
:100980008F2C9D2C882D801B8117A0F4F401819160
:100990004F010E94C503F6CF80E0D4CF002339F089
:1009A0002889398990E4232B09F090E6892B0E944D
:1009B000C503E5CFE881F981028CF38DE02DCE01EE
:1009C0000995E881F9810488F589E02D64E0CE017C
:1009D000099568E2CE010E943E0483FFFACFE881C8
:1009E000F9810488F589E02D61E0CE01DF91CF9196
:1009F0001F910F91FF90EF90DF90CF90BF90AF903D
:100A00009F908F907F900994AF92BF92CF92EF9278
:100A10000F93B12CA12CC12C0E945C040F91EF907C
:100A2000CF90BF90AF9008954F925F926F927F9258
:100A30008F929F92AF92BF92CF92DF92EF92FF92EE
:100A40000F931F93CF93DF93EC012B01142F109280
:100A5000BC0260900103709002038090BE029090EF
:100A6000BF028091B30201E0811101C000E06DE39B
:100A7000CE010E943E04482F44606DE3CE010E94E7
:100A800009040E947D016B017C01E881F9810190DC
:100A9000F081E02DCE010995811113C00E947D01E6
:100AA0006C197D098E099F09683E73408105910587
:100AB00040F4E881F9810680F781E02DCE010995A7
:100AC000E4CF70920203609201035401C02EEE2421
:100AD000E39400E0212FA201B301CE010E945C0447
:100AE0009092BF028092BE02DF91CF911F910F9131
:100AF000FF90EF90DF90CF90BF90AF909F908F903E
:100B00007F906F905F904F900895CF93DF93EC01AB
:100B100069874AE161114FE063E1CE010E94090457
:100B20008985882369F061E1CE010E943E048F71BE
:100B3000482F406661E1CE01DF91CF910C9409040A
:100B400048854068F7CFCF93DF93EC011092FE0207
:100B50001092020310920103109200031092FF0200
:100B60001092AF021092BC021092B1021092BF021A
:100B70001092BE0268E20E943E0482FF0AC06DE34A
:100B8000CE010E943E04482F44606DE3CE010E94D6
:100B9000090440E465E2CE010E940904E881F9817C
:100BA0000488F589E02D63E0CE01DF91CF910994AF
:100BB0001092B3020C94A3054F925F926F927F92B2
:100BC0008F929F92AF92BF92CF92DF92EF920F934C
:100BD0001F93CF93DF93EC014B01142F1092BC02B3
:100BE000C0900103D0900203A090BE02B090BF025B
:100BF0006DE30E943E04482F44606DE3CE010E94E5
:100C000009040E947D012B013C01E881F9810190DA
:100C1000F081E02DCE010995811113C00E947D0164
:100C20006419750986099709683E73408105910525
:100C300040F4E881F9810680F781E02DCE01099525
:100C4000E4CFD0920203C0920103E881F9810088C9
:100C5000F189E02DEE24E39400E0212FA401B601F8
:100C6000CE010995B092BF02A092BE02DF91CF9152
:100C70001F910F91EF90DF90CF90BF90AF909F901A
:100C80008F907F906F905F904F9008954F925F92FA
:100C90006F927F92AF92BF92CF92DF92EF920F93BB
:100CA0001F93CF93DF93EC016B015A01122F6DE379
:100CB0000E943E04482F44606DE3CE010E94090467
:100CC0000E947D012B013C01E881F9810190F081B6
:100CD000E02DCE010995811113C00E947D01641998
:100CE000750986099709683E73408105910540F4AE
:100CF000E881F9810680F781E02DCE010995E4CFE6
:100D0000E881F9810088F189E02DE12C212FA501EE
:100D1000B601CE010995DF91CF911F910F91EF9010
:100D2000DF90CF90BF90AF907F906F905F904F908B
:100D30000895CF93DF93EC01603208F06FE168878C
:100D40008985882311F06695688761E1CE010E944C
:100D50003E04807E4885482B61E1CE01DF91CF9132
:100D60000C9409041F93CF93DF932091AF032617B0
:100D700061F0162FEC01623009F445C050F466238F
:100D800009F453C0613009F449C0DF91CF911F913C
:100D90000895633021F16430C1F761E00E943E04A0
:100DA000837E482F4C6061E0CE010E940904898552
:100DB000882341F0E881F9810688F789E02D61E018
:100DC000CE0109958091AF03811106C067E2CE0183
:100DD0000E943E0487FFF6CF1093AF03D6CF61E0A9
:100DE0000E943E04837E482F406161E0CE010E9454
:100DF00009048985882331F3E881F9810688F78918
:100E0000E02D60E0DDCF61E00E943E04837E482F4C
:100E1000486061E0CE010E940904D4CF61E00E94E5
:100E20003E04837E482F4460F4CF61E00E943E047C
:100E3000482F437EEECF1F93CF93DF932091AF03D4
:100E40002617A9F0162FEC010E94B206143079F48F
:100E500088899989892B59F0E881F9810484F5857D
:100E6000E02D6A89CE01DF91CF911F910994DF9126
:100E7000CF911F910895AF92BF92CF92DF92EF92E0
:100E8000FF920F931F93CF93DF93EC016B01B42E6E
:100E9000A52EF22E102FE881F9810488F589E02D26
:100EA00061E0099567E2CE010E943E0487FFFACF18
:100EB0000F2D0E3308F00DE3E1103DC01123E9F1D1
:100EC00010E48FEFC816D10449F040F0C60126E0C7
:100ED000969587952A95E1F78C70182B8D819E81C8
:100EE0008F3F910521F018F0892F8370182BE8812E
:100EF000F981008CF18DE02DCE01099580E80E94EA
:100F0000C50383E0800F0E94C5038C2D0E94C5039A
:100F10008D810E94C503812F0E94C5031B2DEB2CE0
:100F2000FA2C8E2D811B801750F4F70181917F01DF
:100F30000E94C503F6CF10E8C4CF10E0C2CFE8810D
:100F4000F981028CF38DE02DCE010995E881F981BC
:100F50000488F589E02D64E0CE01099568E2CE01B0
:100F60000E943E0483FFFACFE881F9810488F58965
:100F7000E02D61E0CE01DF91CF911F910F91FF90A5
:100F8000EF90DF90CF90BF90AF9009948CBD9DBD46
:100F90000895CF93DF938CB5C0EBD3E08B838DB5F1
:100FA0008C838D819E810E94C60760E08881DF91DD
:100FB000CF910C94A600CF930E94C90785E00E94B0
:100FC000C50380E00E94C503C82F0E94B6038C2F82
:100FD0008170CF910895CF93DF93C82F662331F0AE
:100FE00060E086E00E94EB070E94B6030E94C907FA
:100FF00085E00E94C50380E00E94C503D82F0E94AF
:10100000B603D0FDF3CF0E94C9078C2FDF91CF919B
:101010000C94C503CF93DF930E94C9078FE90E9408
:10102000C50380E00E94C503C82FD0E0DC2FCC2789
:1010300080E00E94C503C82B0E94B603CE01DF9159
:10104000CF910895CF93DF93EC018CB58C878DB54C
:101050008D878E859F850E94C60760E08A81DF911B
:10106000CF910C94A600EF92FF920F931F93CF9312
:10107000DF938C01EB0161E00E941B07209741F197
:101080008881882329F1C8010E9422088EEB0E94E2
:10109000C5037E0180E1E80EF11C89910E94C50321
:1010A000EC16FD06D1F7C8010E94A803C1E06DE36C
:1010B000C8010E943E048E7F482F4C2B6DE3C8016F
:1010C000DF91CF911F910F91FF90EF900C94090445
:1010D000C0E0EDCFFC0101900020E9F73197AF01AE
:1010E000481B590BBC0182E193E00C948E0186E30E
:1010F00091E00C946A088F929F92AF92BF920F93E7
:101100001F93CF93DF93CDB7DEB7A1970FB6F894B7
:10111000DEBF0FBECDBF19A2423008F44AE08E01F7
:101120000F5D1F4F842E912CB12CA12CA501940191
:101130000E94830FE62FB901CA01EA30F4F4E05DA2
:10114000D801EE938D01232B242B252B79F790E0EA
:1011500080E0109719F0CD010E946A08A1960FB6A1
:10116000F894DEBF0FBECDBFDF91CF911F910F91DD
:10117000BF90AF909F908F900895E95CE1CFCF939F
:10118000DF930E946A08EC010E9477088C0F9D1F74
:10119000DF91CF9108950C946A08CF93DF9320914B
:1011A000AF03233021F080E0DF91CF9108952091AB
:1011B000AF022111F8CFEC0164E20E943E0490E0FE
:1011C0009195819591098C349F4F6CF7E881F98155
:1011D0000488F589E02D61E0CE01099581E0E4CF36
:1011E000EF92FF920F931F93CF93DF93EC018091C7
:1011F000B002882309F468C08091AF031092B00256
:10120000833009F0AEC068E2CE010E943E0482FF46
:10121000A8C0E881F9810488F589E02D61E0CE015C
:101220000995E881F981008CF18DE02DCE010995B9
:1012300080E00E94C50380E00E94C503082F182F9C
:10124000833408F012E41093AF0280E00E94C503DB
:10125000E82E80E00E94C503F82E80E00E94C503BE
:10126000282F30E0A90166E0440F551F6A95E1F789
:10127000442753704E29509300034093FF02322FAE
:101280002227222733702F29309302032093010352
:101290009F81E881F981911107C02D813E8142171C
:1012A000530711F0452B11F4033040F51092AF02B3
:1012B000028CF38DE02DCE010995E881F981028839
:1012C000F389E02DCE0109958091AF03833009F0B9
:1012D00057C08091AF02882309F459C0E881F98191
:1012E0000488F589E02D61E0CE01099581E0DF9168
:1012F000CF911F910F91FF90EF900895135010938D
:10130000FE02982F90789093B102982F907490934A
:10131000BC020684F785E02D682FCE01099510E008
:10132000E091FE021E1750F480E00E94C503E12FF9
:10133000F0E0E054FD4F80831F5FF2CFF0E0E05417
:10134000FD4F1082E881F981028CF38DE02DCE01F2
:101350000995E881F9810488F589E02D63E0CE01E3
:10136000099564E2CE010E943E0490E0919581953A
:101370009109959587959093BF028093BE02A4CF63
:10138000E881F9810288F389E02DCE01099580E09A
:10139000AECF1F920F920FB60F9211242F933F934F
:1013A0008F939F93AF93BF938091090390910A030A
:1013B000A0910B03B0910C033091080323E0230F9D
:1013C0002D3758F50196A11DB11D20930803809378
:1013D000090390930A03A0930B03B0930C0380912D
:1013E0000D0390910E03A0910F03B091100301968D
:1013F000A11DB11D80930D0390930E03A0930F03C5
:10140000B0931003BF91AF919F918F913F912F9116
:101410000F900FBE0F901F90189526E8230F02968D
:10142000A11DB11DD2CF1F920F920FB60F921124A2
:101430002F933F934F935F936F937F938F939F93DC
:10144000AF93BF93EF93FF93E0910201F0910301FB
:101450000995FF91EF91BF91AF919F918F917F91EE
:101460006F915F914F913F912F910F900FBE0F9011
:101470001F9018951F920F920FB60F9211242F9361
:101480003F934F935F936F937F938F939F93AF930C
:10149000BF93EF93FF93E0910001F0910101099553
:1014A000FF91EF91BF91AF919F918F917F916F913C
:1014B0005F914F913F912F910F900FBE0F901F9012
:1014C00018951F920F920FB60F9211242F933F93EE
:1014D0004F935F936F937F938F939F93AF93BF933C
:1014E000EF93FF9382E193E00E940C02FF91EF9152
:1014F000BF91AF919F918F917F916F915F914F912C
:101500003F912F910F900FBE0F901F9018951F9233
:101510000F920FB60F9211242F938F939F93EF93F7
:10152000FF93E0912203F09123038081E09128034F
:10153000F091290382FD1BC0908180912B038F5F66
:101540008F7320912C03821741F0E0912B03F0E080
:10155000EE5EFC4F958F80932B03FF91EF919F914F
:101560008F912F910F900FBE0F901F901895808133
:10157000F4CFE2E1F3E01382128288EE93E0A0E080
:10158000B0E084839583A683B78388E091E091835C
:10159000808385EC90E09587848784EC90E0978742
:1015A000868780EC90E0918B808B81EC90E0938B30
:1015B000828B82EC90E0958B848B86EC90E0978B0D
:1015C000868B118E128E138E148EE7EBF3E080E57E
:1015D000868717869AE0928392E0938391E09093B6
:1015E000AF0317829FE190871186138612862AE146
:1015F00031E031832083E0EBF3E08583168288E0DD
:10160000808380E39FEE928381830895CF93DF935D
:10161000CDB7DEB7E2970FB6F894DEBF0FBECDBFF1
:10162000789484B5826084BD84B5816084BD85B5BD
:10163000826085BD85B5816085BD80916E008160C9
:1016400080936E001092810080918100826080936F
:101650008100809181008160809381008091800071
:101660008160809380008091B10084608093B1009C
:101670008091B00081608093B00080917A00846096
:1016800080937A0080917A00826080937A008091C2
:101690007A00816080937A0080917A0080688093DC
:1016A0007A001092C100E0912203F091230382E0BE
:1016B0008083E0911E03F0911F031082E0912003CC
:1016C000F091210380E1808310922A03E0912603A8
:1016D000F091270386E08083E0912403F0912503B5
:1016E000808180618083E0912403F09125038081D3
:1016F00088608083E0912403F091250380818068D5
:101700008083E0912403F091250380818F7D808385
:101710006AE070E080E090E00E944A011092C80305
:101720001092C7031092CC031092CB031092B30215
:101730008FE18093C90381E08093CA039091BA033B
:10174000923009F0B8C01092BB03FE0133968CE2D0
:10175000DF011D928A95E9F781E0898384E08A831D
:1017600022E02B8393E09D832E838F8380E4888700
:1017700025E029879A8796E09B8793E39C8797E0EB
:101780009D8728E02F8729E0298B29E12B8B22E4F4
:101790002C8B35E23D8B8E8B36E23F8B988F98E217
:1017A000998F90E19A8F99E29B8F9CED9C8F9EE29E
:1017B0009D8F98E89E8F9FE29F8F9DE298A390E374
:1017C00099A337E33BA330E93CA338E33DA32EA321
:1017D0002CE32FA32FE828A72DE329A722E12AA78E
:1017E0002FE62BA79CA79FEF9DA79CE69E87888B43
:1017F00084E68AA361E08091B9030E94A6008091EB
:10180000B9030E9487008091C1039091C203892B84
:1018100031F482EB92E09093C2038093C1030E9463
:10182000F20080E58093C50381E08093C6030E94A7
:101830007D016B017C014AEA6FE287EB93E00E9435
:1018400009046FE287EB93E00E943E048A3A59F064
:101850000E947D016C197D098E099F096233710513
:101860008105910540F30E947D016B017C0145E5F6
:101870006FE287EB93E00E9409046FE287EB93E04D
:101880000E943E04853509F0ADC010E0E12FF0E084
:10189000EE0FFF1F81E090E08C0F9D1FE80FF91FF6
:1018A00060816F3F09F4ABC0418187EB93E00E94F8
:1018B00009041F5FEBCF933009F491C08FEF809341
:1018C000BB0361E087EB93E00E94850560E471E073
:1018D00087EB93E00E943308809107038093BE0357
:1018E00081E08F9381EB8F9380E591E09F938F93BD
:1018F0008E010F5F1F4F1F930F930E944211C8016B
:101900000E94BF088CB58093B3038DB58093B40358
:101910008091B0030E9487000E94F20080E58093CE
:10192000B5031092B6030E94B6030E94C9078BEA62
:101930000E94C5030E94B6030F900F900F900F9066
:101940000F900F908091B1039091B203892B09F011
:10195000ADC061E081E00E94EB0780E00E94C5031A
:101960000E94B60388E691E00E94CB0860E08BE419
:101970000E94EB0780E00E94C50380E00E94C5033F
:1019800080E00E94C50380E00E94C50334EBE32E93
:1019900032E0F32E4CEBC42E42E0D42E870180E0DF
:1019A0000E94C503D8018D938D01CA16DB06B9F7D5
:1019B0000E94B603F70161917F0170E090E080E042
:1019C00040E10E947B088AE30E947B020E151F05FE
:1019D00089F78DE50E947B020E94770875C080938D
:1019E000BB03B3CE0E947D016C197D098E099F094E
:1019F000623371058105910508F439CF46CF70E057
:101A000060E087EB93E00E9433086091C00387EBAE
:101A100093E00E94850561E087EB93E00E941B073D
:101A20000E947D016B017C0167E287EB93E00E94DD
:101A30003E0487FD0BC00E947D016C197D098E0953
:101A40009F09623371058105910570F30E947D0144
:101A50006C197D098E099F09623371058105910515
:101A600008F02FCF8091BB03823090F4E82FF0E094
:101A7000EE0FFF1FE050FF4F29E831E03183208354
:101A8000813069F080916900836080936900E89AF1
:101A900081E090E09093BD038093BC0312CF8091CE
:101AA00069008C6080936900E99AF2CF0E940A086D
:101AB0002091B1033091B2038217930709F449CF03
:101AC0008AE891E00E94BF0889EB91E00E94BF087C
:101AD00020E0A22E20E0B22E82E193E00E94EC01F1
:101AE000181619060CF049C082E193E00E94CA0161
:101AF000823709F09BC087EE91E00E94BF08C12C9D
:101B0000D12C7601C39487EB93E00E9422088C2DA0
:101B10000E94C50380E00E94C503482E87EB93E036
:101B20000E94A80340E1C701B6010E947B088BEF29
:101B300091E00E94CB08512C712C612C40E1C30133
:101B4000B2010E947B088BEF91E00E94CB0842E03B
:101B5000C301B2010E947B080E947708FFEFCF1AF1
:101B6000DF0AEF0AFF0A80E5C816D104E104F10498
:101B700051F687EB93E00E94A80387EB93E00E9465
:101B8000F008882309F4A4C188E592E00E94CB08FC
:101B90006091030370910403809105039091060303
:101BA0006F5F7F4F8F4F9F4F6093030370930403CA
:101BB00080930503909306034AE00E947B088DE51D
:101BC0000E947B028BE50E947B0260910103709171
:101BD000020390E080E04AE00E947B088BE592E0FF
:101BE0000E94CB0880910703882321F08EE592E0C4
:101BF0000E94CB086091FF027091000390E080E0AA
:101C00004AE00E947B088BE592E00E94CB0810E03E
:101C10008091FE02181708F0D4C0E12FF0E0E054E4
:101C2000FD4F80810E947B021F5FF2CF60E471E074
:101C3000853421F0853639F470E060E087EB93E07D
:101C40000E9433089ACF8037C1F48091070391E056
:101C50008927809307038093BE038FEF91E00E9452
:101C6000CB0880910703811105C08CE391E00E94AD
:101C7000BF0883CF89E391E0FACF8436B1F58DE0D8
:101C800092E00E94BF08C12CD12C760160E083E075
:101C90000E94EB0780E00E94C5038D2D0E94C503C2
:101CA0008C2D0E94C50380E00E94C503182F0E945E
:101CB000B603612F70E090E080E040E10E947B0875
:101CC0008EE20E947B029FEFC91AD90AE90AF90A3B
:101CD000A1E0CA16DA06E104F104C1F60E94DB07AE
:101CE0008111FCCF0E94770848CF843489F48CE1BD
:101CF00092E00E94CB0861E080E60E94EB070E9420
:101D0000B6030E94DB078111FCCF85E392E0AFCFE1
:101D1000893669F48AE392E00E94CB080E940A089F
:101D2000BC0190E080E040E10E947B08DBCF84377B
:101D300009F023CF61E087EB93E00E941B0748E0A6
:101D40006EE487EB93E00E9409046EE487EB93E076
:101D50000E943E0482FDF9CF6FE487EB93E00E947E
:101D60003E04809515EA180F85E492E00E94CB08A6
:101D7000612F70E090E080E04AE00E947B0884E5FB
:101D800092E00E94CB08612F70E090E080E00E941A
:101D9000491026E636E646EE5FE30E94D51020E0C5
:101DA00030E040E052E40E94AC0F0E94181070E056
:101DB00090E080E04AE00E947B0886E40E947B027B
:101DC00091CF83E692E00E94CB08C090BE02D090F3
:101DD000BF020D2C000CEE08FF084AE0C701B60157
:101DE000F7FE0BC08DE20E947B0266277727CB01AE
:101DF0006C197D098E099F094AE00E947B0880E7E3
:101E000092E00E94CB088091BC02882309F44DC067
:101E10002091BC033091BD038091FF02909100039B
:101E20002817390709F041C0E0900103F090020340
:101E300040E068E371E087EB93E00E94140582E7DD
:101E400092E00E94CB088091BD0291E0980F9093A0
:101E5000BD0263E00E94770F911127C08FE792E0E7
:101E60000E94CB086E2D70E090E080E04AE00E9476
:101E70007B088EE892E00E94CB0863E070E080E08F
:101E800090E00E944A01B70177278EE1E82E00E03A
:101E900028E048E952E087EB93E00E94BE028823E5
:101EA00019F181EA92E00E94CB080E94770889E04C
:101EB0000E94870061E089E00E94A60063E070E074
:101EC00080E090E00E944A0160E089E00E94A60064
:101ED000A114B10409F400CE0E94F801882309F48A
:101EE000FBCD0E940000F8CD85EA92E0DCCF991B83
:101EF00079E004C0991F961708F0961B881F7A9501
:101F0000C9F780950895A1E21A2EAA1BBB1BFD01FB
:101F10000DC0AA1FBB1FEE1FFF1FA217B307E407C8
:101F2000F50720F0A21BB30BE40BF50B661F771F20
:101F3000881F991F1A9469F7609570958095909500
:101F40009B01AC01BD01CF010895EE0FFF1F05906D
:101F5000F491E02D09945058BB27AA270E94C30F83
:101F60000C949B100E948D1038F00E94941020F069
:101F700039F49F3F19F426F40C948A100EF4E0957E
:101F8000E7FB0C948410E92F0E94AC1058F3BA17A9
:101F9000620773078407950720F079F4A6F50C947F
:101FA000CE100EF4E0950B2EBA2FA02D0B01B90127
:101FB00090010C01CA01A0011124FF27591B99F0BF
:101FC000593F50F4503E68F11A16F040A22F232FCB
:101FD000342F4427585FF3CF469537952795A7951B
:101FE000F0405395C9F77EF41F16BA0B620B730BC2
:101FF000840BBAF09150A1F0FF0FBB1F661F771F33
:10200000881FC2F70EC0BA0F621F731F841F48F4E7
:10201000879577956795B795F7959E3F08F0B0CF70
:102020009395880F08F09927EE0F97958795089557
:102030000E94B41088F09F5798F0B92F9927B75194
:10204000B0F0E1F0660F771F881F991F1AF0BA955C
:10205000C9F714C0B13091F00E94CE10B1E00895DC
:102060000C94CE10672F782F8827B85F39F0B93FCE
:10207000CCF3869577956795B395D9F73EF490950F
:102080008095709561957F4F8F4F9F4F0895E8948D
:1020900009C097FB3EF490958095709561957F4FB0
:1020A0008F4F9F4F9923A9F0F92F96E9BB2793955E
:1020B000F695879577956795B795F111F8CFFAF46E
:1020C000BB0F11F460FF1BC06F5F7F4F8F4F9F4F9F
:1020D00016C0882311F096E911C0772321F09EE8FD
:1020E000872F762F05C0662371F096E8862F70E063
:1020F00060E02AF09A95660F771F881FDAF7880F3D
:102100009695879597F9089597F99F6780E870E00D
:1021100060E008959FEF80EC089500240A9416165D
:10212000170618060906089500240A9412161306C5
:10213000140605060895092E0394000C11F4882353
:1021400052F0BB0F40F4BF2B11F460FF04C06F5F6F
:102150007F4F8F4F9F4F089557FD9058440F551F45
:1021600059F05F3F71F04795880F97FB991F61F019
:102170009F3F79F087950895121613061406551F90
:10218000F2CF4695F1DF08C0161617061806991FFC
:10219000F1CF86957105610508940895E894BB27F1
:1021A00066277727CB0197F908950E94E8100C94D1
:1021B0009B100E948D1038F00E94941020F09523FF
:1021C00011F00C9484100C948A1011240C94CF10EC
:1021D0000E94AC1070F3959FC1F3950F50E0551F0E
:1021E000629FF001729FBB27F00DB11D639FAA276C
:1021F000F00DB11DAA1F649F6627B00DA11D661FBB
:10220000829F2227B00DA11D621F739FB00DA11DDB
:10221000621F839FA00D611D221F749F3327A00D95
:10222000611D231F849F600D211D822F762F6A2F31
:1022300011249F5750409AF0F1F088234AF0EE0F96
:10224000FF1FBB1F661F771F881F91505040A9F7C3
:102250009E3F510580F00C9484100C94CF105F3F8A
:10226000E4F3983ED4F3869577956795B795F795FF
:10227000E7959F5FC1F7FE2B880F911D9695879577
:1022800097F90895AEE0B0E0E8E4F1E10C94F113C1
:102290000D891E8986E08C831A8309838FEF9FE75F
:1022A0009E838D83AE01475E5F4F6F89788DCE012F
:1022B00001960E9465112F813885020F131FF801C6
:1022C00010822E96E4E00C940D14ABE0B0E0EBE647
:1022D000F1E10C94E3137C013B018A01FC011782BC
:1022E0001682838181FFC8C1CE0101965C01F7018E
:1022F0009381F30193FD859193FF81913F018823A1
:1023000009F453C1853239F493FD859193FF81918E
:102310003F01853229F4B70190E00E945513E7CFC1
:10232000912C212C312CFFE1F31538F08B3211F177
:1023300090F4803209F1833229F137FC3CC020ED62
:10234000280F2A3050F536FE20C08AE0989E200DD6
:102350001124922E06C08D3291F0803371F768946B
:1023600030F8F30193FD859193FF81913F01811135
:10237000DACF21C0689431F8689432F8F2CF6894CB
:1023800033F8EFCF689434F8ECCFEAE02E9E200DBE
:102390001124222E689435F8E4CF8E3229F436FCCD
:1023A00004C1689436F8DDCF8C3619F4689437F898
:1023B000D8CF8836B1F2982F9F7D95549330E0F0B6
:1023C0008336A1F18337C1F1833509F063C0280159
:1023D000F2E04F0E511CF801C080D180692D70E0F1
:1023E00036FC02C06FEF7FEFC6010E943F134C0125
:1023F000689437F882010AC00C5F1F4FFFE3F9832E
:1024000088248394912C6501E89437F833FE2DC01D
:10241000522C8114910471F5552009F468CFB7014D
:1024200080E290E00E9455135A94F6CFF801808123
:1024300089830E5F1F4FE4CF2801F2E04F0E511C3D
:10244000F801C080D180692D70E036FC02C06FEFCA
:102450007FEFC6010E944A134C018201D5CFB7011C
:1024600080E290E00E9455132A942814190409F080
:10247000B0F7CECFF60137FC859137FE81916F0121
:10248000B70190E00E94551351105A94F1E08F1A51
:102490009108BFCF843619F0893609F077C0F8016A
:1024A00037FE6BC060817181828193810C5F1F4F09
:1024B000F32DFF763F2E97FF09C09095809570957C
:1024C00061957F4F8F4F9F4F689437F82AE030E037
:1024D000A5010E948513C82ECA188C2C432C36FEE9
:1024E0000CC0E89440F8C91440F434FE05C032FC36
:1024F00003C0F32DFE7E4F2E892C44FE95C0FE01B5
:10250000EC0DF11D8081803309F087C0242D297ED8
:10251000422E842D8870582E43FC95C040FE8FC0FB
:102520009C2C821418F42C0C922C981844FE91C008
:10253000B70180E390E00E94551342FE09C088E78E
:1025400090E041FE02C088E590E0B7010E9455137B
:10255000C91408F48AC0CA94D12C9FEFC91AD90AA9
:10256000CA0CDB1CF60182916F01B70190E00E945A
:102570005513AC14BD04B1F74FCF60817181072EA4
:10258000000C880B990B0E5F1F4F92CFD32CE89451
:10259000D4F82AE030E0853739F1232D297FD22E77
:1025A0008F3601F148F48835A9F0F70186819781CB
:1025B0002B96E2E10C94FF13803749F08837A9F796
:1025C000D4FE02C06894D2F820E130E00DC06894D7
:1025D000D4F8F6CF34FE03C0822F8660D82E20E1D7
:1025E00032E002C028E030E0F801D7FE0FC0608181
:1025F0007181828193810C5F1F4FA5010E94851319
:10260000C82ECA183D2CE89437F867CF60817181D5
:1026100090E080E00E5F1F4FF0CF42FC02C0839439
:1026200078CF8394839475CF842D867809F471CF05
:10263000F6CFB70180E290E00E9455138394821494
:10264000C0F3512C73CF522C5818821408F46ECF5B
:10265000F8CF842D867809F47BCF8BE241FE80E2AF
:1026600047FC8DE2B70190E071CFB70180E390E0C5
:102670000E9455139A946CCF8FEF9FEF99CFFC0176
:102680000590615070400110D8F7809590958E0F9D
:102690009F1F0895FC016150704001900110D8F710
:1026A000809590958E0F9F1F08950F931F93CF9342
:1026B000DF93182F092FEB018B8181FD09C01FEFDC
:1026C0000FEF812F902FDF91CF911F910F910895E0
:1026D00082FF14C02E813F818C819D81281739078C
:1026E0003CF4E881F981CF010196998388831083B6
:1026F0008E819F8101969F838E83E3CFE885F98544
:10270000812F0995892BA1F3DACFFA01AA27283066
:1027100051F1203181F1E8946F936E7F6E5F7F4FAE
:102720008F4F9F4FAF4FB1E03ED0B4E03CD0670F2A
:10273000781F891F9A1FA11D680F791F8A1F911D7D
:10274000A11D6A0F711D811D911DA11D20D009F4CD
:1027500068943F912AE0269F11243019305D31930F
:10276000DEF6CF010895462F4770405D4193B3E0F8
:102770000FD0C9F7F6CF462F4F70405D4A3318F09F
:10278000495D31FD4052419302D0A9F7EACFB4E050
:10279000A6959795879577956795BA95C9F7009708
:1027A0006105710508959B01AC010A2E06945795A9
:1027B000479537952795BA95C9F7620F731F841F00
:1027C000951FA01D08952F923F924F925F926F9296
:1027D0007F928F929F92AF92BF92CF92DF92EF92B1
:1027E000FF920F931F93CF93DF93CDB7DEB7CA1B32
:1027F000DB0B0FB6F894DEBF0FBECDBF09942A885D
:10280000398848885F846E847D848C849B84AA8404
:10281000B984C884DF80EE80FD800C811B81AA8191
:10282000B981CE0FD11D0FB6F894DEBF0FBECDBF5C
:08283000ED010895F894FFCFBB
:102838008D018D01000000002E028E01BB01800277
:10284800EC01CA01DE0100000000CD084606BE0208
:10285800F008140585059906CC030405D8051B075F
:1028680028042208A8030D0A006F6E006F66660030
:10287800626C6173746675726E61636531323300C0
:102888000A4C697374656E696E67206174202564EB
:10289800204D687A2E2E2E0053504920466C6173C5
:1028A8006820496E6974204F4B2E20556E697175EA
:1028B80065204D4143203D205B0053504920466C24
:1028C800617368204D454D206E6F7420666F756E7C
:1028D8006420286973206368697020736F6C64656D
:1028E8007265643F292E2E2E0052464D36395F41BF
:1028F800544320456E61626C656420284175746F8D
:10290800205472616E736D697373696F6E20436FC3
:102918006E74726F6C290041646472657373202D44
:1029280020484558202D2042494E00202D20005394
:1029380070794D6F6465206D6F64652000466C6129
:10294800736820636F6E74656E743A0044656C65D5
:1029580074696E6720466C617368206368697020CB
:102968002E2E2E2000444F4E45004465766963653F
:1029780049443A2000526164696F2054656D7020A3
:1029880069732000432C2000235B005D2000746FD6
:10299800205B002020205B52585F525353493A0075
:1029A8005D00202D2041434B2073656E742E00205E
:1029B80050696E67696E67206E6F64652000202D10
:1029C8002041434B2E2E2E0041434B205445535457
:0E29D800006F6B21006E6F7468696E670000FF
:00000001FF
