:100000000C945D000C948C090C9465090C9485008B
:100010000C9485000C9485000C9485000C9485004C
:100020000C9485000C9485000C9485000C9485003C
:100030000C9485000C9485000C9485000C9485002C
:100040000C941B090C9485000C94D9090C94B309E9
:100050000C9485000C9485000C9485000C9485000C
:100060000C9485000C94850000000008000201003B
:100070000003040700000000000000000000000072
:10008000250028002B0000000000240027002A0083
:10009000040404040404040402020202020203032E
:1000A0000303030301020408102040800102040836
:1000B00010200102040810200B0A11241FBECFEFEC
:1000C000D8E0DEBFCDBF11E0A0E0B1E0E2E8F0E2B1
:1000D00002C005900D92A03DB107D9F723E0A0ED35
:1000E000B1E001C01D92AB3AB207E1F710E0CDE5F7
:1000F000D0E004C02197FE010E94610DCC35D107EC
:10010000C9F70E94580A0C943F100C94000090E02C
:10011000FC01EC55FF4F249180579F4FFC018491C7
:10012000882399F090E0880F991FFC01EA57FF4F50
:10013000A591B491FC01E458FF4F859194918FB73C
:10014000F894EC91E22BEC938FBF089590E0FC01C2
:10015000E859FF4F2491FC01EC55FF4F3491FC010D
:10016000E057FF4FE491EE23C9F0222339F023300A
:1001700001F1A8F4213019F1223029F1F0E0EE0F5D
:10018000FF1FE458FF4FA591B4918FB7F894EC91FD
:10019000611126C030953E233C938FBF08952730D0
:1001A000A9F02830C9F0243049F7809180008F7D74
:1001B00003C0809180008F7780938000DFCF84B56B
:1001C0008F7784BDDBCF84B58F7DFBCF8091B0006E
:1001D0008F778093B000D2CF8091B0008F7DF9CF20
:1001E0003E2BDACF3FB7F8948091EB029091EC026E
:1001F000A091ED02B091EE0226B5A89B05C02F3F5D
:1002000019F00196A11DB11D3FBFBA2FA92F982F3C
:100210008827BC01CD01620F711D811D911D42E037
:10022000660F771F881F991F4A95D1F708958F92FF
:100230009F92AF92BF92CF92DF92EF92FF9289E0AE
:100240000E94870061E089E00E94A6000E94F200FF
:100250004B015C0183E0C82ED12CE12CF12C0E94D3
:10026000F200681979098A099B09683E7340810583
:100270009105A8F321E0C21AD108E108F10888EE3F
:10028000880E83E0981EA11CB11CC114D104E104A6
:10029000F10429F760E089E0FF90EF90DF90CF90C4
:1002A000BF90AF909F908F900C94A6002FB7F894BA
:1002B0006091E7027091E8028091E9029091EA0270
:1002C0002FBF089581E08093D10108950895AF92E2
:1002D000BF92CF92DF92EF92FF920F931F93CF9333
:1002E000DF936C017B018B01040F151FEB015E0195
:1002F000AE18BF08C017D10759F06991D601ED912A
:10030000FC910190F081E02DC6010995892B79F7C8
:10031000C501DF91CF911F910F91FF90EF90DF907A
:10032000CF90BF90AF900895FC01538D448D252F41
:1003300030E0842F90E0821B930B541710F0CF967F
:10034000089501970895FC01918D828D981761F0B1
:10035000A28DAE0FBF2FB11D5D968C91928D9F5FC8
:100360009F73928F90E008958FEF9FEF0895FC01A7
:10037000918D828D981731F0828DE80FF11D858D5A
:1003800090E008958FEF9FEF0895FC01918D228DED
:10039000892F90E0805C9F4F821B91098F73992772
:1003A00008958FEE92E00E94C50121E0892B09F4A7
:1003B00020E0822F089580E090E0892B29F00E94B0
:1003C000D10181110C9400000895FC01A48DA80FA7
:1003D000B92FB11DA35ABF4F2C91848D90E0019687
:1003E0008F739927848FA689B7892C93A089B189A7
:1003F0008C91837080648C93938D848D981306C048
:100400000288F389E02D80818F7D80830895EF92AB
:10041000FF920F931F93CF93DF93EC0181E0888FBE
:100420009B8D8C8D98131AC0E889F989808185FF8E
:1004300015C09FB7F894EE89FF896083E889F98930
:1004400080818370806480839FBF81E090E0DF9132
:10045000CF911F910F91FF90EF900895F62E0B8D85
:1004600010E00F5F1F4F0F731127E02E8C8D8E1140
:100470000CC00FB607FCFACFE889F989808185FFA7
:10048000F5CFCE010E94E501F1CFEB8DEC0FFD2FF2
:10049000F11DE35AFF4FF0829FB7F8940B8FEA8962
:1004A000FB8980818062CFCF682F8FEE92E00C9421
:1004B0000702CF93DF93EC01888D8823B9F0AA89D6
:1004C000BB89E889F9898C9185FD03C0808186FD0F
:1004D0000DC00FB607FCF7CF8C9185FFF2CF80815E
:1004E00085FFEDCFCE010E94E501E9CFDF91CF91ED
:1004F0000895CF93DF93EC0161E08A810E94A6000A
:100500008C858CBD8D858DBDDF91CF910895FC01CB
:100510008CB584878DB58587968587859CBD8DBD77
:1005200060E082810C94A600CF93DF93EB01DC01A5
:10053000ED91FC910680F781E02D0995882379F0F3
:1005400080911A0290911B02C817D90711F0CD2B88
:1005500029F481E09091D201911101C080E0DF91F6
:10056000CF9108954F925F926F927F929F92AF9238
:10057000BF92CF92DF92EF92FF920F931F93CF9390
:10058000DF9300D000D000D0CDB7DEB79E838D833F
:100590006B015A01122FF02E912C2E2D30E050E0DD
:1005A00040E029833A834B835C838FE1E82EAD8161
:1005B000BE81ED91FC9111970280F381E02D01E065
:1005C000212FA501B601CD0109950E9456012B01ED
:1005D0003C010E9456016419750986099709298111
:1005E0003A814B815C816217730784079507E8F4B1
:1005F000B6018D819E810E949402882351F3269634
:100600000FB6F894DEBF0FBECDBFDF91CF911F9123
:100610000F91FF90EF90DF90CF90BF90AF909F90A1
:100620007F906F905F904F900895AD81BE815296FC
:100630008C9152978F3140F453969C915397890F28
:10064000803240F452968C939394F91408F0AFCF13
:1006500080E0D5CFED81FE81E28AF6CF4F925F92A6
:100660006F927F929F92AF92BF92CF92DF92EF9262
:10067000FF920F931F93CF93DF9300D000D000D051
:10068000CDB7DEB79E838D836B015A01122FF02EFA
:10069000912C2E2D30E050E040E029833A834B83AB
:1006A0005C83AD81BE81ED91FC9111970280F38155
:1006B000E02D01E0212FA501B601CD0109950E9491
:1006C00056012B013C010E945601641975098609E7
:1006D000970929813A814B815C81621773078407EE
:1006E0009507E8F4B6018D819E810E9494028823CB
:1006F00051F326960FB6F894DEBF0FBECDBFDF9143
:10070000CF911F910F91FF90EF90DF90CF90BF900E
:10071000AF909F907F906F905F904F9008959394CB
:10072000F91408F0BECF80E0E4CF08958EBD00003C
:100730000DB407FEFDCF8EB508951F93CF93DF93C1
:1007400060726093D5012091D201222329F120917A
:10075000D501222309F1109119021123E9F0EC01CE
:1007600080E00E94960390E09195819591099D8B80
:100770008C8B115010931902288939892115310564
:1007800059F08217930774F48A898F3128F49B8972
:10079000890F803228F48A8BDF91CF911F910895C1
:1007A0008FE1F9CF28173907BCF78A898823A1F38D
:1007B0008150F1CF0F931F93CF93DF93EC01062F5E
:1007C000142FE881F981008CF18DE02D0995802F9F
:1007D00080680E949603812F0E949603E881F98128
:1007E000028CF38DE02DCE01DF91CF911F910F91FF
:1007F00009941F93CF93DF93EC01162F45E5611108
:100800004DE56AE5CE010E94DA0340E711114CE79D
:100810006CE5CE01DF91CF911F910C94DA031F9309
:10082000CF93DF93EC01162FE881F981008CF18DD5
:10083000E02D0995812F0E94960380E00E94960387
:10084000182FE881F981028CF38DE02DCE010995F6
:10085000812FDF91CF911F9108957F928F929F9268
:10086000AF92BF92CF92DF92EF92FF920F931F93BE
:10087000CF93DF93EC014B01F42ED52E722EE8813D
:10088000F9810488F589E02D61E0099567E2CE01E0
:100890000E940F0487FFFACF10E0E1101C2D170D06
:1008A0001E3308F01DE3E881F981008CF18DE02D05
:1008B000CE01099580E80E94960383E0810F0E9493
:1008C0009603882D0E9496038D810E9496038FEFD8
:1008D0008816910491F188F1C40126E096958795D8
:1008E0002A95E1F78C702D813E812F3F310521F053
:1008F00018F0932F9370892BEE2009F190E0C1102E
:1009000090E28068892B0E949603CC2049F0C501B3
:10091000B7FE03C09195819591090E9496031150ED
:100920000F2D8F2C9D2C882D801B8117A0F4F40196
:1009300081914F010E949603F6CF80E0D4CF00232F
:1009400039F02889398990E4232B09F090E6892B26
:100950000E949603E5CFE881F981028CF38DE02DAA
:10096000CE010995E881F9810488F589E02D64E0DC
:10097000CE01099568E2CE010E940F0483FFFACFF1
:10098000E881F9810488F589E02D61E0CE01DF91ED
:10099000CF911F910F91FF90EF90DF90CF90BF907C
:1009A000AF909F908F907F900994AF92BF92CF921B
:1009B000EF920F93B12CA12CC12C0E942D040F910A
:1009C000EF90CF90BF90AF9008954F925F926F924B
:1009D0007F928F929F92AF92BF92CF92DF92EF92CF
:1009E000FF920F931F93CF93DF93EC012B01142FF2
:1009F0001092D80160901A0270901B028090D90169
:100A00009090DA018091D50101E0811101C000E0F0
:100A10006DE3CE010E940F04482F44606DE3CE01C8
:100A20000E94DA030E9456016B017C01E881F98182
:100A30000190F081E02DCE010995811113C00E9433
:100A400056016C197D098E099F09683E7340810526
:100A5000910540F4E881F9810680F781E02DCE010F
:100A60000995E4CF70921B0260921A025401C02EC5
:100A7000EE24E39400E0212FA201B301CE010E94F5
:100A80002D049092DA018092D901DF91CF911F91CC
:100A90000F91FF90EF90DF90CF90BF90AF909F901D
:100AA0008F907F906F905F904F900895CF93DF93DA
:100AB000EC0169874AE161114FE063E1CE010E94D8
:100AC000DA038985882369F061E1CE010E940F0471
:100AD0008F71482F406661E1CE01DF91CF910C9478
:100AE000DA0348854068F7CFCF93DF93EC0110928B
:100AF000190210921B0210921A021092D701109242
:100B0000D6011092D0011092D8011092D201109209
:100B1000DA011092D90168E20E940F0482FF0AC034
:100B20006DE3CE010E940F04482F44606DE3CE01B7
:100B30000E94DA0340E465E2CE010E94DA03E88114
:100B4000F9810488F589E02D63E0CE01DF91CF9132
:100B500009941092D5010C9474054F925F926F9294
:100B60007F928F929F92AF92BF92CF92DF92EF923D
:100B70000F931F93CF93DF93EC014B01142F10922F
:100B8000D801C0901A02D0901B02A090D901B09059
:100B9000DA016DE30E940F04482F44606DE3CE013B
:100BA0000E94DA030E9456012B013C01E881F98181
:100BB0000190F081E02DCE010995811113C00E94B2
:100BC00056016419750986099709683E73408105C5
:100BD000910540F4E881F9810680F781E02DCE018E
:100BE0000995E4CFD0921B02C0921A02E881F981E4
:100BF0000088F189E02DEE24E39400E0212FA40188
:100C0000B601CE010995B092DA01A092D901DF9127
:100C1000CF911F910F91EF90DF90CF90BF90AF9049
:100C20009F908F907F906F905F904F9008954F921C
:100C30005F926F927F92AF92BF92CF92DF92EF92CC
:100C40000F931F93CF93DF93EC016B015A01122F87
:100C50006DE30E940F04482F44606DE3CE010E94B3
:100C6000DA030E9456012B013C01E881F9810190D1
:100C7000F081E02DCE010995811113C00E9456012B
:100C80006419750986099709683E734081059105C5
:100C900040F4E881F9810680F781E02DCE010995C5
:100CA000E4CFE881F9810088F189E02DE12C212F42
:100CB000A501B601CE010995DF91CF911F910F914A
:100CC000EF90DF90CF90BF90AF907F906F905F904C
:100CD0004F900895CF93DF93EC01603208F06FE1FD
:100CE00068878985882311F06695688761E1CE0160
:100CF0000E940F04807E4885482B61E1CE01DF9180
:100D0000CF910C94DA031F93CF93DF9320918C0340
:100D1000261761F0162FEC01623009F445C050F43B
:100D2000662309F453C0613009F449C0DF91CF91C3
:100D30001F910895633021F16430C1F761E00E9492
:100D40000F04837E482F4C6061E0CE010E94DA03DD
:100D50008985882341F0E881F9810688F789E02DAB
:100D600061E0CE01099580918C03811106C067E294
:100D7000CE010E940F0487FFF6CF10938C03D6CFCD
:100D800061E00E940F04837E482F406161E0CE0144
:100D90000E94DA038985882331F3E881F981068886
:100DA000F789E02D60E0DDCF61E00E940F04837ED3
:100DB000482F486061E0CE010E94DA03D4CF61E0A1
:100DC0000E940F04837E482F4460F4CF61E00E94AC
:100DD0000F04482F437EEECF1F93CF93DF932091D4
:100DE0008C032617A9F0162FEC010E9483061430FD
:100DF00079F488899989892B59F0E881F9810484EB
:100E0000F585E02D6A89CE01DF91CF911F9109947C
:100E1000DF91CF911F910895EF92FF920F931F934F
:100E2000CF93DF938C01EB0161E00E94EC062097E9
:100E300041F18881882329F1C8010E9487028EEB45
:100E40000E9496037E0180E1E80EF11C89910E94C8
:100E50009603EC16FD06D1F7C8010E947902C1E0A5
:100E60006DE3C8010E940F048E7F482F4C2B6DE369
:100E7000C801DF91CF911F910F91FF90EF900C94DB
:100E8000DA03C0E0EDCFAF92BF92CF92DF92EF9244
:100E9000FF920F931F93CF93DF93EC016B01B42E5E
:100EA000A52EF22E102FE881F9810488F589E02D16
:100EB00061E0099567E2CE010E940F0487FFFACF37
:100EC0000F2D0E3308F00DE3E1103DC01123E9F1C1
:100ED00010E48FEFC816D10449F040F0C60126E0B7
:100EE000969587952A95E1F78C70182B8D819E81B8
:100EF0008F3F910521F018F0892F8370182BE8811E
:100F0000F981008CF18DE02DCE01099580E80E94D9
:100F1000960383E0800F0E9496038C2D0E94960317
:100F20008D810E949603812F0E9496031B2DEB2C2E
:100F3000FA2C8E2D811B801750F4F70181917F01CF
:100F40000E949603F6CF10E8C4CF10E0C2CFE8812C
:100F5000F981028CF38DE02DCE010995E881F981AC
:100F60000488F589E02D64E0CE01099568E2CE01A0
:100F70000E940F0483FFFACFE881F9810488F58984
:100F8000E02D61E0CE01DF91CF911F910F91FF9095
:100F9000EF90DF90CF90BF90AF900994FC0101904B
:100FA0000020E9F73197AF01481B590BBC018FEEC8
:100FB00092E00C9467018F929F92AF92BF920F9331
:100FC0001F93CF93DF93CDB7DEB7A1970FB6F894F9
:100FD000DEBF0FBECDBF19A2423008F44AE08E0139
:100FE0000F5D1F4F842E912CB12CA12CA5019401D3
:100FF0000E943F0DE62FB901CA01EA30F4F4E05D2A
:10100000D801EE938D01232B242B252B79F790E02B
:1010100080E0109719F0CD010E94CE07A1960FB67F
:10102000F894DEBF0FBECDBFDF91CF911F910F911E
:10103000BF90AF909F908F900895E95CE1CFCF93E0
:10104000DF9320918C03233021F080E0DF91CF915A
:1010500008952091D0012111F8CFEC0164E20E94A3
:101060000F0490E09195819591098C349F4F6CF716
:10107000E881F9810488F589E02D61E0CE010995C8
:1010800081E0E4CFEF92FF920F931F93CF93DF9312
:10109000EC018091D101882309F468C080918C0310
:1010A0001092D101833009F0AEC068E2CE010E94F7
:1010B0000F0482FFA8C0E881F9810488F589E02D3A
:1010C00061E0CE010995E881F981008CF18DE02D78
:1010D000CE01099580E00E94960380E00E9496036D
:1010E000082F182F833408F012E41093D00180E009
:1010F0000E949603E82E80E00E949603F82E80E07E
:101100000E949603282F30E0A90166E0440F551F86
:101110006A95E1F7442753704E295093D7014093C5
:10112000D601322F2227222733702F2930931B021A
:1011300020931A029F81E881F981911107C02D81C6
:101140003E814217530711F0452B11F4033040F54F
:101150001092D001028CF38DE02DCE010995E8812B
:10116000F9810288F389E02DCE01099580918C03E5
:10117000833009F057C08091D001882309F459C009
:10118000E881F9810488F589E02D61E0CE010995B7
:1011900081E0DF91CF911F910F91FF90EF90089523
:1011A000135010931902982F90789093D201982F92
:1011B00090749093D8010684F785E02D682FCE01B6
:1011C000099510E0E09119021E1750F480E00E948A
:1011D0009603E12FF0E0E552FE4F80831F5FF2CFD0
:1011E000F0E0E552FE4F1082E881F981028CF38D28
:1011F000E02DCE010995E881F9810488F589E02D7B
:1012000063E0CE01099564E2CE010E940F0490E0F4
:10121000919581959109959587959093DA018093A1
:10122000D901A4CFE881F9810288F389E02DCE01AC
:10123000099580E0AECF1F920F920FB60F92112446
:101240002F933F938F939F93AF93BF938091E70228
:101250009091E802A091E902B091EA023091E60291
:1012600023E0230F2D3758F50196A11DB11D2093C2
:10127000E6028093E7029093E802A093E902B0931C
:10128000EA028091EB029091EC02A091ED02B09104
:10129000EE020196A11DB11D8093EB029093EC022A
:1012A000A093ED02B093EE02BF91AF919F918F9109
:1012B0003F912F910F900FBE0F901F90189526E829
:1012C000230F0296A11DB11DD2CF1F920F920FB610
:1012D0000F9211242F933F934F935F936F937F93BC
:1012E0008F939F93AF93BF93EF93FF93E09102018E
:1012F000F09103010995FF91EF91BF91AF919F91FB
:101300008F917F916F915F914F913F912F910F90AE
:101310000FBE0F901F9018951F920F920FB60F924D
:1013200011242F933F934F935F936F937F938F93EA
:101330009F93AF93BF93EF93FF93E0910001F091E0
:1013400001010995FF91EF91BF91AF919F918F910D
:101350007F916F915F914F913F912F910F900FBEB1
:101360000F901F9018951F920F920FB60F92112495
:101370002F933F934F935F936F937F938F939F939D
:10138000AF93BF93EF93FF938FEE92E00E94E5013E
:10139000FF91EF91BF91AF919F918F917F916F914D
:1013A0005F914F913F912F910F900FBE0F901F9023
:1013B00018951F920F920FB60F9211242F938F93AF
:1013C0009F93EF93FF93E091FF02F09100038081E0
:1013D000E0910503F091060382FD1BC0908180918E
:1013E00008038F5F8F7320910903821741F0E0910A
:1013F0000803F0E0E151FD4F958F80930803FF91C2
:10140000EF919F918F912F910F900FBE0F901F9092
:1014100018958081F4CFEFEEF2E01382128288EE0D
:1014200093E0A0E0B0E084839583A683B78388E04F
:1014300091E09183808385EC90E09587848784ECAC
:1014400090E09787868780EC90E0918B808B81EC91
:1014500090E0938B828B82EC90E0958B848B86EC72
:1014600090E0978B868B118E128E138E148EE4EA89
:10147000F3E080E58583168298E0908320E33FEED9
:1014800032832183EDE8F3E0868717868AE0828342
:1014900082E0838381E080938C0317828FE18087D1
:1014A0001186138612868AE191E0918380830895E4
:1014B000CF93DF93CDB7DEB7E2970FB6F894DEBFD8
:1014C0000FBECDBF789484B5826084BD84B5816041
:1014D00084BD85B5826085BD85B5816085BD8091FF
:1014E0006E00816080936E00109281008091810077
:1014F000826080938100809181008160809381006F
:10150000809180008160809380008091B100846030
:101510008093B1008091B00081608093B000809191
:101520007A00846080937A0080917A008260809350
:101530007A0080917A00816080937A0080917A00AD
:10154000806880937A001092C100E091FF02F091D0
:10155000000382E08083E091FB02F091FC021082A4
:10156000E091FD02F091FE0280E18083109207037A
:10157000E0910303F091040386E08083E09101038E
:10158000F0910203808180618083E0910103F091FA
:101590000203808188608083E0910103F09102035F
:1015A000808180688083E0910103F0910203808153
:1015B0008F7D808310929E0310929D031092A20350
:1015C0001092A1031092D5018FE180939F0381E0D7
:1015D0008093A00390919003923009F0E6C010929E
:1015E0009103FE0133968CE2DF011D928A95E9F7A3
:1015F00081E0898384E08A8322E02B8393E09D83CA
:101600002E838F8380E4888725E029879A8796E058
:101610009B8793E39C8797E09D8728E02F8729E0AD
:10162000298B29E12B8B22E42C8B35E23D8B8E8B91
:1016300036E23F8B988F98E2998F90E19A8F99E2EA
:101640009B8F9CED9C8F9EE29D8F98E89E8F9FE2E2
:101650009F8F9DE298A390E399A337E33BA330E9E2
:101660003CA338E33DA32EA32CE32FA32FE828A708
:101670002DE329A722E12AA72FE62BA79CA79FEFFE
:101680009DA79CE69E87888B84E68AA361E0809173
:101690008F030E94A60080918F030E948700809193
:1016A000970390919803892B31F484ED91E0909306
:1016B0009803809397031FB7F8948091D301811109
:1016C00024C0EAE9F0E08491EEEAF0E09491E82F9A
:1016D000F0E0EE0FFF1FEA57FF4FA591B491EC9198
:1016E000E92321F461E08AE00E94A6008AE00E94DA
:1016F00087008CB580618CBD8CB580648CBD8DE01D
:101700000E9487008BE00E9487008091D3018F5F49
:101710008093D3011FBF80E580939B0381E080937A
:101720009C030E9456016B017C014AEA6FE28DE83E
:1017300093E00E94DA036FE28DE893E00E940F04C9
:101740008A3A59F00E9456016C197D098E099F0949
:10175000623371058105910540F30E9456016B01CA
:101760007C0145E56FE28DE893E00E94DA036FE2C9
:101770008DE893E00E940F04853509F0BDC010E0AC
:10178000E12FF0E0EE0FFF1F81E090E08C0F9D1F36
:10179000E80FF91F60816F3F09F4BBC041818DE8FC
:1017A00093E00E94DA031F5FEBCF933009F4A1C0EE
:1017B0008FEF8093910361E08DE893E00E945605DE
:1017C00066E371E08DE893E00E940C0780EB9FEFE9
:1017D00090939E0380939D0381E08F9381EB8F9381
:1017E00086E491E09F938F938E010F5F1F4F1F93AD
:1017F0000F930E94670DC8010E94CE0781E691E019
:101800000E94CE0784E691E00E94CE0781E691E037
:101810000E94CE070F900F900F900F900F900F9097
:1018200090E0A92E90E0B92E8FEE92E00E94C501C3
:1018300018161906C4F58FEE92E00E94A301F82E47
:101840000091E4021091E5029AE0F91619F0ADE07A
:10185000FA12B9C01016110634F581E691E00E9423
:10186000CE078EE1E82E02E02091E4024CE152E046
:1018700061E070E08DE893E00E94B202882309F4F1
:101880009FC083E991E00E94CE078CE192E00E9424
:10189000CE0781E691E00E94CE070E9417011092C8
:1018A000E5021092E4028DE893E00E94420888234A
:1018B00009F4D9C08BE50E94540260911A0270911C
:1018C0001B0290E080E04AE00E94DB0782EB91E09F
:1018D0000E94CE0710E080911902181708F081C00D
:1018E000E12FF0E0E552FE4F80810E9454021F5F1D
:1018F000F2CF8093910375CE0E9456016C197D0939
:101900008E099F09623371058105910508F429CF7D
:1019100036CF70E060E08DE893E00E940C076091A4
:1019200096038DE893E00E94560561E08DE893E010
:101930000E94EC060E9456016B017C0167E28DE873
:1019400093E00E940F0487FD0BC00E9456016C19A2
:101950007D098E099F09623371058105910570F338
:101960000E9456016C197D098E099F096233710529
:101970008105910508F01FCF80919103823090F48A
:10198000E82FF0E0EE0FFF1FE050FF4F22E631E0BE
:1019900031832083813069F0809169008360809376
:1019A0006900E89A82E090E0909393038093920319
:1019B00002CF809169008C6080936900E99AF2CF30
:1019C0008EE991E064CF8F2D0E945402F801E45E0D
:1019D000FD4FF0820F5F1F4F1093E5020093E4026A
:1019E00062CF85EB91E00E94CE07C090D901D090E4
:1019F000DA010D2C000CEE08FF084AE0C701B60121
:101A0000F7FE0BC08DE20E94540266277727CB01B8
:101A10006C197D098E099F094AE00E94DB0782EC60
:101A200091E00E94CE078091D8018823B1F02091E7
:101A30009203309193038091D6019091D70128179A
:101A4000390759F440E063E671E08DE893E00E94C5
:101A5000E50484EC91E00E94CE070E94170181E624
:101A600091E00E94CE07A114B10409F4DDCE0E94DA
:101A7000D101882309F4D8CE0E940000D5CEA1E27E
:101A80001A2EAA1BBB1BFD010DC0AA1FBB1FEE1FF8
:101A9000FF1FA217B307E407F50720F0A21BB30B43
:101AA000E40BF50B661F771F881F991F1A9469F7BF
:101AB00060957095809590959B01AC01BD01CF011B
:101AC0000895EE0FFF1F0590F491E02D0994AEE00C
:101AD000B0E0EDE6FDE00C9416100D891E8986E05D
:101AE0008C831A8309838FEF9FE79E838D83AE01DA
:101AF000475E5F4F6F89788DCE0101960E948A0DF7
:101B00002F813885020F131FF80110822E96E4E012
:101B10000C943210ABE0B0E0E0E9FDE00C9408106A
:101B20007C013B018A01FC0117821682838181FFBF
:101B3000C8C1CE0101965C01F7019381F30193FDC9
:101B4000859193FF81913F01882309F453C1853228
:101B500039F493FD859193FF81913F01853229F4FA
:101B6000B70190E00E947A0FE7CF912C212C312C05
:101B7000FFE1F31538F08B3211F190F4803209F166
:101B8000833229F137FC3CC020ED280F2A3050F574
:101B900036FE20C08AE0989E200D1124922E06C0A9
:101BA0008D3291F0803371F7689430F8F30193FD32
:101BB000859193FF81913F018111DACF21C0689413
:101BC00031F8689432F8F2CF689433F8EFCF689424
:101BD00034F8ECCFEAE02E9E200D1124222E6894DA
:101BE00035F8E4CF8E3229F436FC04C1689436F817
:101BF000DDCF8C3619F4689437F8D8CF8836B1F237
:101C0000982F9F7D95549330E0F08336A1F1833770
:101C1000C1F1833509F063C02801F2E04F0E511C79
:101C2000F801C080D180692D70E036FC02C06FEFF2
:101C30007FEFC6010E94640F4C01689437F882015F
:101C40000AC00C5F1F4FFFE3F98388248394912C13
:101C50006501E89437F833FE2DC0522C81149104AD
:101C600071F5552009F468CFB70180E290E00E9439
:101C70007A0F5A94F6CFF801808189830E5F1F4F47
:101C8000E4CF2801F2E04F0E511CF801C080D18052
:101C9000692D70E036FC02C06FEF7FEFC6010E9435
:101CA0006F0F4C018201D5CFB70180E290E00E9416
:101CB0007A0F2A942814190409F0B0F7CECFF60150
:101CC00037FC859137FE81916F01B70190E00E944A
:101CD0007A0F51105A94F1E08F1A9108BFCF8436D1
:101CE00019F0893609F077C0F80137FE6BC06081C2
:101CF0007181828193810C5F1F4FF32DFF763F2E00
:101D000097FF09C090958095709561957F4F8F4F93
:101D10009F4F689437F82AE030E0A5010E94AA0F8F
:101D2000C82ECA188C2C432C36FE0CC0E89440F800
:101D3000C91440F434FE05C032FC03C0F32DFE7E0E
:101D40004F2E892C44FE95C0FE01EC0DF11D8081C3
:101D5000803309F087C0242D297E422E842D88707F
:101D6000582E43FC95C040FE8FC09C2C821418F462
:101D70002C0C922C981844FE91C0B70180E390E09F
:101D80000E947A0F42FE09C088E790E041FE02C03F
:101D900088E590E0B7010E947A0FC91408F48AC060
:101DA000CA94D12C9FEFC91AD90ACA0CDB1CF601C0
:101DB00082916F01B70190E00E947A0FAC14BD04CC
:101DC000B1F74FCF60817181072E000C880B990B02
:101DD0000E5F1F4F92CFD32CE894D4F82AE030E066
:101DE000853739F1232D297FD22E8F3601F148F422
:101DF0008835A9F0F701868197812B96E2E10C9452
:101E00002410803749F08837A9F7D4FE02C06894BF
:101E1000D2F820E130E00DC06894D4F8F6CF34FE5B
:101E200003C0822F8660D82E20E132E002C028E075
:101E300030E0F801D7FE0FC060817181828193810B
:101E40000C5F1F4FA5010E94AA0FC82ECA183D2C77
:101E5000E89437F867CF6081718190E080E00E5F91
:101E60001F4FF0CF42FC02C0839478CF83948394B9
:101E700075CF842D867809F471CFF6CFB70180E253
:101E800090E00E947A0F83948214C0F3512C73CF98
:101E9000522C5818821408F46ECFF8CF842D86780F
:101EA00009F47BCF8BE241FE80E247FC8DE2B70173
:101EB00090E071CFB70180E390E00E947A0F9A948E
:101EC0006CCF8FEF9FEF99CFFC0105906150704070
:101ED0000110D8F7809590958E0F9F1F0895FC01F3
:101EE0006150704001900110D8F7809590958E0F49
:101EF0009F1F08950F931F93CF93DF93182F092FE0
:101F0000EB018B8181FD09C01FEF0FEF812F902F17
:101F1000DF91CF911F910F91089582FF14C02E8100
:101F20003F818C819D81281739073CF4E881F98134
:101F3000CF0101969983888310838E819F810196BA
:101F40009F838E83E3CFE885F985812F0995892BBF
:101F5000A1F3DACFFA01AA27283051F1203181F11B
:101F6000E8946F936E7F6E5F7F4F8F4F9F4FAF4FA1
:101F7000B1E03ED0B4E03CD0670F781F891F9A1FB4
:101F8000A11D680F791F8A1F911DA11D6A0F711D68
:101F9000811D911DA11D20D009F468943F912AE074
:101FA000269F11243019305D3193DEF6CF0108955C
:101FB000462F4770405D4193B3E00FD0C9F7F6CF8D
:101FC000462F4F70405D4A3318F0495D31FD405255
:101FD000419302D0A9F7EACFB4E0A69597958795EB
:101FE00077956795BA95C9F70097610571050895CA
:101FF0009B01AC010A2E0694579547953795279576
:10200000BA95C9F7620F731F841F951FA01D08950D
:102010002F923F924F925F926F927F928F929F92F8
:10202000AF92BF92CF92DF92EF92FF920F931F93E6
:10203000CF93DF93CDB7DEB7CA1BDB0B0FB6F89497
:10204000DEBF0FBECDBF09942A88398848885F84D7
:102050006E847D848C849B84AA84B984C884DF8048
:10206000EE80FD800C811B81AA81B981CE0FD11D2C
:102070000FB6F894DEBF0FBECDBFED010895F89402
:02208000FFCF90
:10208200660166010000000007026701940159021F
:10209200C501A301B701000000001F081706B20224
:1020A2004208E50456056A069D03D504A905EC0617
:1020B200F90387027902626C6173746675726E61EC
:1020C2006365313233000A5472616E736D697474E0
:1020D200696E67206174202564204D687A2E2E2E49
:1020E200000D0A0052464D36395F41544320456E79
:1020F20061626C656420284175746F205472616E50
:10210200736D697373696F6E20436F6E74726F6C57
:10211200290A004D53472053656E743A20006D65BD
:1021220073736167652073656E64206661696C65AF
:1021320064005D20002020205B52585F52535349B7
:102142003A005D00202D2041434B2073656E7400E0
:00000001FF
